:020000040800F2
:1000000068280020A10100089D210008B51D0008F6
:1000100000000000000000000000000000000000E0
:10002000000000000000000000000000F9240008AB
:1000300000000000000000009F2100088525000846
:10004000B3010008B3010008B3010008B3010008C0
:10005000B3010008B3010008B3010008B3010008B0
:10006000B3010008B3010008DD0400081D05000805
:10007000B3010008B3010008B3010008B301000890
:10008000B3010008B3010008B3010008B301000880
:10009000B3010008B3010008B3010008B301000870
:1000A000B3010008B3010008B3010008B301000860
:1000B000B3010008CD2A0008B3010008B30100080D
:1000C00000F002F800F040F80CA030C808382418FE
:1000D0002D18A246671EAB4654465D46AC4201D180
:1000E00000F032F87E460F3E0FCCB6460126334272
:1000F00000D0FB1AA246AB4633431847D830000065
:10010000F8300000103A02D378C878C1FAD8520704
:1001100001D330C830C101D504680C6070470000BD
:100120000023002400250026103A01D378C1FBD813
:10013000520700D330C100D50B6070471FB5C046D1
:10014000C0461FBD10B510BD00F097F91146FFF76E
:10015000F5FF02F07FFD00F0AFF903B4FFF7F2FF07
:1001600003BC00F0B3F9000070B505460C46164616
:1001700002E00FCC0FC5103E102EFAD2082E02D38B
:1001800003CC03C5083E042E07D301CC01C5361F9E
:1001900003E021782970641C6D1C761EF9D270BDB5
:1001A0000748804707480047FEE7FEE7FEE7FEE70F
:1001B000FEE7FEE704480549054A064B7047000084
:1001C000F9250008C10000086822002068280020E6
:1001D0006824002068240020FEB5054610460C4621
:1001E000184373D0AE468C460020AD1A01469C41A0
:1001F00067D36646002701243D46B61A9D4102D3C7
:1002000013463A462124654676462F04360C3E4373
:100210002D0CB61A9D4104D3150C1B042B4312045C
:100220001034654676462F06360A3E432D0AB61A26
:100230009D4104D3150E1B022B4312020834654660
:1002400076462F0736093E432D09B61A9D4104D341
:10025000150F1B012B431201241D65467646AF077F
:10026000B6083E43AD08B61A9D4104D3950F9B00D6
:100270002B439200A41C65467646EF0776083E4362
:100280006D08B61A9D411AD392185B41641C16E0A2
:100290000018764665464941B71A9D410191009084
:1002A00009D36046B11A98418E4684460098019958
:1002B0000025401C6941DD0752082A435B08641E83
:1002C000E6D57246634603B0F0BDFFE70020014665
:1002D000C046C0462A462346F5E701E004C0091F90
:1002E0000429FBD28B0701D50280801CC90700D0EE
:1002F0000270704700290BD0C30702D00270401C67
:10030000491E022904D3830702D50280801C891E5E
:10031000E3E70022EEE70022DFE7002203098B4239
:100320002CD3030A8B4211D300239C464EE0034694
:100330000B433CD4002243088B4231D303098B4248
:100340001CD3030A8B4201D394463FE0C3098B427E
:1003500001D3CB01C01A524183098B4201D38B01D7
:10036000C01A524143098B4201D34B01C01A52417A
:1003700003098B4201D30B01C01A5241C3088B42BF
:1003800001D3CB00C01A524183088B4201D38B00AA
:10039000C01A524143088B4201D34B00C01A52414C
:1003A000411A00D201465241104670475DE0CA0F23
:1003B00000D04942031000D34042534000229C46E3
:1003C00003098B422DD3030A8B4212D3FC228901ED
:1003D00012BA030A8B420CD3890192118B4208D3C3
:1003E000890192118B4204D389013AD0921100E025
:1003F0008909C3098B4201D3CB01C01A5241830939
:100400008B4201D38B01C01A524143098B4201D365
:100410004B01C01A524103098B4201D30B01C01A90
:100420005241C3088B4201D3CB00C01A524183080A
:100430008B4201D38B00C01A5241D9D243088B4260
:1004400001D34B00C01A5241411A00D20146634603
:1004500052415B10104601D34042002B00D5494267
:10046000704763465B1000D3404201B50020C04690
:10047000C04602BD704770477047754600F022F8CD
:10048000AE46050069465346C008C000854618B010
:1004900020B5FFF78FFE60BC00274908B64600264E
:1004A000C0C5C0C5C0C5C0C5C0C5C0C5C0C5C0C524
:1004B000403D49008D4670470446C046C046204630
:1004C000FFF74BFE00487047042200200149182026
:1004D000ABBEFEE7260002007047000010B50A48D8
:1004E000006880060BD509480178002907D0002153
:1004F000017007490120087006492020C867064896
:1005000000F0A8F810BD000000000240020000202A
:1005100000000020B0200020C021002010B50A48B3
:100520000068800408D5092001221021C00600F0CF
:1005300027FA064901200870054800F08BF80548A5
:1005400000F088F810BD000000000240010000200B
:10055000382100207C2100203EB5044609200022DD
:100560001021C00600F00CFA3C2168460171002100
:10057000017264200090012302AA01A9054801F03C
:1005800049F905482146808A82B2024801F09CF868
:100590003EBD00004C2000200000002010B5144C8F
:1005A000A16960690A18A2612146236949689A42D3
:1005B00017DA104A914202D111460F4A00E00E4963
:1005C000626082B20D4801F09DFBA1692069401A6A
:1005D0000B49884200DB084660616068FFF7BCFF9A
:1005E00010BD0122A27082B2044801F08BFB10BD45
:1005F000000000202C00002011100020B02000205E
:10060000E50F000010B504460068054940181421A4
:10061000FFF783FE800020640248E06310BD000005
:10062000F8FFFDBF0000024030B5056C0124AC406E
:10063000C56B6C60046863604368102B036803D06B
:1006400099600068C26030BD9A600068C16030BDCA
:1006500072B6FEE7F0B4C16B0E688C4601680D6897
:100660000422076C1346BB4033420DD06B070BD5F9
:100670000B689B0602D40B6893430B60016C8A40A5
:10068000C16B4A60C16A13E00223BB401C460246AC
:1006900034402032002C0FD0AC070DD509688906F4
:1006A00001D40121517061464B6000211170816AB3
:1006B000002917D0F0BC08470823BB40334211D0B3
:1006C0002B070FD50B680E24A3430B600121046C8C
:1006D0000B46A340C46B63608163517000211170AD
:1006E000016BE5E7F0BC704770B5040021D0022132
:1006F0002046203005464170226811680E48A368E4
:100700000140606826691843E3683343184363690E
:100710001843A3691843E36918430843106020464F
:10072000FFF770FF0021A16301206870297008465F
:1007300070BD012070BD00000FC0FFFFF8B504467A
:100740008C46203001780025012909D00126067049
:1007500041780027012905D0077002252846F8BDF9
:100760000220F8BD02214170A76320680168490892
:100770004900016061462046FFF756FFE06A002805
:100780002068016802D00E22114306E00A221143BC
:1007900001602068016804229143016020680168BB
:1007A00031430160DAE7000070B5044600F0EEF86E
:1007B0000546601C02D004480078241800F0E6F8D2
:1007C000401BA042FAD370BD1C000020F8B50023E6
:1007D00003240125BFE02E469E40B44632407CD023
:1007E0000E79B607B60F012E01D0022E17D18668FA
:1007F0002746B6465E00B74000967646BE43B646EC
:10080000CF68009EB74076463743876046686746A4
:10081000BE430F79FF06FF0F9F40374347600E79B5
:10082000F643B6070ED0C6682746B4465E00B64605
:10083000B7406646BE43B4468F687646B7406646C4
:100840003743C7600E79B607B60F022E14D1DE0803
:10085000B60036180096366A5F07B446FE0E0F27BC
:10086000B646B7406646BE43B4460F697646B740C3
:1008700066463743009E376206682746B4465E00E8
:10088000B646B7406646BE430F79B446BF07BF0FB2
:100890007646B7406646374307604E68B603B60FE4
:1008A00058D0304FBE692E43BE61BE699F08F6071F
:1008B000F60F2D4EBF00BE190096B6680F27B4463E
:1008C0009E07360FB646B7406646BE430927FF0669
:1008D000B446B84202D1002715E03BE0234FB842AE
:1008E00001D101270FE0224FB84201D102270AE0CF
:1008F000204FB84201D1032705E01F4FB84201D174
:10090000042700E005277646B74066463743009E39
:10091000B7601A4EB6684F689643FF0200D516437B
:10092000164FBE60FE684F689643BF0200D516435F
:10093000124FFE607E684F689643BF0300D5164392
:100940000E4F7E603E684F689643FF0300D5164306
:100950000A4A16605B1C0A681646DE4000D03AE779
:10096000F8BD0000001002400000014000040048F3
:1009700000080048000C0048001000480004014036
:10098000002A01D081617047816270470148806808
:10099000704700001C00002070B5024640325378BA
:1009A000202B1CD11378012B19D001231370242480
:1009B0005470046825689D432560046825681E03FB
:1009C000B5432560046825680D432560006801680B
:1009D00019430160202050700020107070BD02206B
:1009E00070BD70B5024640325378202B1BD113786E
:1009F000012B18D0012414702423537003681D6840
:100A0000A5431D6005682B680F263602B343090213
:100A1000194329600068016821430160202050705B
:100A20000020107070BD022070BD000070B5040081
:100A300006D02546403568780026002802D005E01B
:100A4000012070BD2E70204600F05AF924206870F5
:100A5000206801684908490001600F2160680906A3
:100A600088432168086121688A680120C0038243A5
:100A70008A60E1680129A16808D02122920211430D
:100A800022689160E168022902D005E00143F7E79E
:100A900001212268C902516021684A680F4B1A433C
:100AA0004A602168CA688243CA6061692069084354
:100AB000A169090208432168C860216AE069084306
:100AC00021680860206801680122114301606664A2
:100AD000202068702663AE70002070BD0080000288
:100AE000FFB5054604464035687881B0202878D1A6
:100AF0002878012875D001202870FFF747FF0746A6
:100B0000012200901923D103204601F0FFF90028AB
:100B10003CD1222068701020A870002666640398DB
:100B20006062049860856663618D2F48FF2903D950
:100B3000FF22228500903BE0618D218500903DE001
:100B40002046029901F0CCF916E001F011FA0028D4
:100B50001CD12068406A616A0870606A401C60624B
:100B6000208D401E81B22185608D401E6085608D84
:100B7000002801D000290CD0608D0A9900283A463F
:100B80002046E2D101F044FA00281CD0012005B033
:100B9000F0BD00970022802120460A9B01F0B6F9A3
:100BA0000028F3D1608DFF2805D9FF222285009609
:100BB00001231B06C4E7608D20850096208D01234C
:100BC000C2B25B06BCE721682020C86121684A6880
:100BD000064B1A404A606870AE702E700020D6E74F
:100BE000FFE70220D3E700000024008000E800FEB9
:100BF000FFB5054604464035687881B0202878D195
:100C00002878012875D001202870FFF7BFFE07461D
:100C1000012200901923D103204601F077F9002822
:100C20003CD1212068701020A870002666640398CB
:100C30006062049860856663618D2F48FF2903D93F
:100C4000FF22228500903BE0618D218500903DE0F0
:100C50002046029901F044F916E001F004FA002858
:100C60001CD1606A216800788862606A401C6062FA
:100C7000608D401E6085208D401E80B22085618D74
:100C8000002901D000280CD0608D0A9900283A462E
:100C90002046E2D101F0BCF900281CD0012005B0AB
:100CA000F0BD00970022802120460A9B01F02EF91A
:100CB0000028F3D1608DFF2805D9FF2222850096F8
:100CC00001231B06C4E7608D20850096208D01233B
:100CD000C2B25B06BCE720682021C161206843687E
:100CE000064A134043606970AE702E700020D6E74C
:100CF000FFE70220D3E700000020008000E800FEAC
:100D000010B586B0044614216846FFF704FB12496B
:100D1000206888421ED1114C616901208004014382
:100D20006161616901400591C0200090122001902D
:100D30000020029003200390012004906946084897
:100D4000FFF744FDE169012040050143E161E169EC
:100D50000140059106B010BD005400400010024053
:100D60000004004802488168027889188160704751
:100D70001C00002010B506480168102211430160D4
:100D8000032000F007F800F027F8002010BD000055
:100D90000020024070B504460D4D7D202978C0002A
:100DA000FFF7BBFA01460B480068FFF7B6FA00F000
:100DB00007FF002809D1042C07D200222146401E3B
:100DC00000F02AF800206C6070BD012070BD0000AA
:100DD0001C0000202800002008B508488169012275
:100DE00011438161816911400091C26901040A4384
:100DF000C261C0690840009008BD000000100240B8
:100E0000002805DBC106C90E0120884001490860A1
:100E10007047000000E100E010B501F097FE10BD42
:100E2000F8B504460068424DC00351D5E869002674
:100E3000C00007D4E96928040143E961E969014078
:100E4000012600913B480168C90510D4016882154C
:100E500011430160FFF79AFD074604E0FFF796FD96
:100E6000C01B642824D833480068C005F6D5286A1A
:100E700003273F02384020D06168394081421CD0AE
:100E8000286A2A6AB843012109040A432A622A6AA5
:100E90008A432A622862C0070FD0FFF777FD0090CF
:100EA00008E0FFF773FD0099411A2348814201D9F8
:100EB0000320F8BD286A8007F3D5286A6168B84323
:100EC00008432862012E03D1E86931078843E861AD
:100ED0002078C00705D0286BA168800880000843EF
:100EE00028632078800706D5286B032109048843EE
:100EF000E168084328632078800605D5286B102117
:100F000088432169084328632068800305D5286B3E
:100F100080218843A169084328632088400505D5BE
:100F2000286B402188436169084328630020F8BD8D
:100F3000001002400070004088130000F8B50F4612
:100F400006005ED03C4D2868C007C00FB84209D2E9
:100F5000286840084000384328602868C007C00F50
:100F6000B8424ED13068354C81070CD5400704D5C6
:100F7000606807210902084360606068F0218843C7
:100F8000B168084360603078C0072BD070680128D2
:100F900010D0022810D0032811D021688907002919
:100FA0002FDA61688908890001436160FFF7EEFC70
:100FB000009010E0216803E021688901EFE7616B90
:100FC0008903ECE7FFF7E2FC0099411A1C488142D3
:100FD00001D90320F8BD60680C21084071688900C0
:100FE0008842EFD12868C007C00FB8420BD92868E3
:100FF00040084000384328602868C007C00FB84246
:1010000001D00120F8BD3078400706D5606807217F
:1010100009028843F1680843606000F027F86168BE
:10102000084A0906090F515CC840074908600320B7
:10103000FFF7B0FE0020F8BD002002400010024083
:1010400088130000BC31000828000020044805492E
:1010500000684968044A4905490F515CC840704717
:101060002800002000100240CC31000870B5154A5D
:1010700051680C200B4603401348042B05D0134D38
:10108000082B03D00C2B00D1284670BD8B02104CCE
:101090001B0FE45CD26A0E4B1207120F1033C90308
:1010A0009A5C890F022901D0032901D0002301E0B5
:1010B000002328460021FFF78FF8214601F02EFD7E
:1010C00070BD00000010024000127A00006CDC02CB
:1010D0009C310008FEB5040070D02078F94EFA4D1E
:1010E000C00748D068680007800F01281FD06868D3
:1010F0000007800F022804D16868C003800F02280F
:1011000015D06168012919D001208004002901D07F
:10111000052917D02968B1432960296881432960CE
:10112000606800281BD0FFF731FC074613E02868F1
:10113000800320D560680028CED01CE028683043AA
:101140002860EDE7296801432960F7E7FFF71EFCF7
:10115000C01B642870D828688003F7D50BE0FFF720
:1011600015FC074604E0FFF711FCC01B6428F1D80A
:1011700028688003F7D4207880073FD56868000787
:10118000800F14D068680007800F022804D16868B7
:10119000C003800F01280AD0E068002828681ED00C
:1011A000012108432860FFF7F1FB07460CE028689F
:1011B00080070CD5E068012800D108E07FE1FFF747
:1011C000E5FBC01B0228C5D828688007F7D528682A
:1011D000F82188432169C900084328600EE04008CF
:1011E00040002860FFF7D2FB074604E0FFF7CEFB84
:1011F000C01B0228AED828688007F7D420780007E3
:1012000023D5E0690028686A0FD00121084368628D
:10121000FFF7BCFB074604E0FFF7B8FBC01B022842
:1012200098D8686A8007F7D50FE0400840006862E8
:10123000FFF7ACFB074605E0C9E0FFF7A7FBC01BC3
:10124000022887D8686A8007F7D4207804274007E7
:10125000002860DA00200190E869C00008D4E9693C
:10126000B8060143E961E96901400120009101905C
:1012700096480168C90511D40168821511430160BF
:10128000FFF784FB009005E0FFF780FB0099401A10
:10129000642898D88D480068C005F5D5A068012855
:1012A0000AD0002801D0052811D0286A4008400043
:1012B0002862286AB84302E0286A012108432862AC
:1012C000A068002812D0FFF761FB00900AE0286AAE
:1012D00038432862F0E7FFF759FB0099411A7C4830
:1012E000814274D8286A8007F5D50DE0FFF74EFBE0
:1012F000009006E0FFF74AFB0099411A74488142CA
:1013000065D8286A8007F5D40198012803D1E969D6
:1013100000078143E9612078C00635D5606901285E
:101320000CD0401D686B24D038436863686B40085C
:1013300040006863FFF72AFB074622E0686B3843EA
:101340006863686B012108436863FFF71FFB07466A
:1013500004E0FFF71BFBC01B022838D8686B80072E
:10136000F7D5686BF8218843A169C9000843686311
:101370000AE0B8436863F4E7FFF708FBC01B0228E4
:1013800025D8686B8007F7D42078800637D5686841
:101390000007800F032813D068680007800F022819
:1013A00004D16868C003800F032809D0206A002890
:1013B000686B16D030436863FFF7E8FA06460CE026
:1013C000686B80031BD5206A012878D117E05BE0A9
:1013D000FFF7DCFA801B022856D8686B8003F7D52C
:1013E0000DE0B0436863FFF7D1FA064604E0FFF76B
:1013F000CDFA801B022847D8686B8003F7D4606A57
:10140000002867D069680907890F022942D00126A0
:1014100036060228286805D0B0432860FFF7B6FAE0
:10142000044633E0B0432860FFF7B0FA074604E013
:10143000FFF7ACFAC01B022826D828688001F7D431
:10144000E86A216B000900010843E862A16AE06ACA
:10145000084369687B22D203914308436860286887
:1014600030432860FFF792FA044604E0FFF78EFA53
:10147000001B022808D828688001F7D52AE0FFF76A
:1014800085FA001B022801D90320FEBD28688001CF
:10149000F5D41FE00128F8D06868E96A0322D20376
:1014A000A36A02409A420AD10907226B090F9142AE
:1014B00005D10F2189040840E16A88420AD0012041
:1014C000FEBD00000000010000100240007000405E
:1014D000881300000020F3E77047F8B504000CD033
:1014E000606A002500280AD02561656126464036DD
:1014F000A562707F002808D00BE00120F8BD61686C
:10150000C81FFD38F2D0E561F0E73577204600F0DE
:101510005BF80222727720680168402399430160DA
:101520000723E1681B02994201D9002001E0012054
:1015300000030F273F02B94202D0994200D0A562B2
:10154000FF236168053319402127A368BF023B4090
:10155000194323691340227D1943D207D20F114347
:101560000123A2695B021A401143E26938231A4041
:101570001143226A80231A401143A26A9B011A4038
:10158000114322681160A1690422090C1140626AAA
:1015900010231A401143626B08231A4011430F2392
:1015A000E2681B021A40114301221203104001435A
:1015B000206841602068C16952109143C16125666D
:1015C000012070770020F8BDF0B587B006461421E1
:1015D0006846FEF7A0FE35493068884264D1344839
:1015E000C26909140A43C261C2690A40059242698C
:1015F00049010A43426142690A4005924269491021
:101600000A434261406902240840059008200025F1
:1016100003276946B1C10120049069462548FFF7B8
:10162000D5F82003009000200290049001946946B0
:1016300003972148FFF7CAF8214C2048206000207A
:101640006060A060206180276061E760A061B801F0
:10165000E0612046FFF748F8002801D0FEF7F8FFC8
:10166000B46566621548174C143020601020211DA7
:10167000A1C1256165614002A561E0612046FFF7D7
:1016800033F8002801D0FEF7E3FF7465666201209D
:101690008003009002200190032003900295694688
:1016A00004950548FFF792F807B0F0BD00380040F8
:1016B00000100240000800480004004844000240B6
:1016C000382100207C210020F8B50026054604467C
:1016D0004035687F012801D002268EE0A368002BE8
:1016E0000BD16068C71FFD3F07D104206877134600
:1016F0000A46204600F08AF9F8BD287F01282FD03D
:101700000120287700292DD0002A2BD004206877CB
:10171000002020662164AA80EA80E0642065A0871A
:10172000E0870121C9038B4209D121680A6840235F
:101730009A430A6021680A681B029A430A6021687A
:101740004B680122520393434B600727E3683F0233
:101750005110BB4208D9226853688B4353601CE088
:101760000220F8BD012648E023685F680F435F60F0
:10177000A36D01275B69BF02BB420ED123685F687E
:101780008F435F60E988C90721684B681ED0134307
:101790004B60E9884908491CE980A26D1949D1626A
:1017A000A26D19499162A26D18491163A16D486338
:1017B000EB882168226C0C31A06DFEF7BFFF00287A
:1017C00009D0206E102108432066CBE793434B607D
:1017D000E9884908E0E720680168490603D4016800
:1017E000402211430160206841682022114341607A
:1017F000206841680122114341600020287730466B
:10180000F8BD0000C3210008D7210008A12100086D
:1018100070477047FFB5044683B001202546403528
:101820000090287F00271E4601280FD0012028772E
:10183000FFF7ACF80190687F616801280DD0CA1FDE
:10184000FD3A08D1A168002905D102E0022007B0C5
:10185000F0BD042801D00227D3E0049800286FD0FF
:1018600005980028FBD0002EF9D0687F042801D00D
:10187000052068770020206605992164EE80AE80FF
:101880000499A163E687A687E0642065072101200B
:10189000E268090200038A422268536801D983433F
:1018A00000E00343536020680268520603D40268D4
:1018B00040231A430260E0688842606848D90028E3
:1018C00001D0012E3DD1A06B21680088C860A06BBB
:1018D000801CA063E08F401EE08732E020688168B2
:1018E000890710D5E18F00290DD0009901290AD16F
:1018F000A16B0988C160A06B801CA063E08F401EB3
:10190000E0870020009020688168C9070DD0E98831
:1019100000290AD0C068216C0880206C801C2064DB
:10192000E888401EE88001200090FFF72FF8019919
:10193000411A0C98814204D3401C02D003275EE078
:101940005BE0E08F0028C9D1E8880028C6D147E0D5
:10195000002801D0012E3DD1A06B216800780873CA
:10196000A06B401CA063E08F401EE08732E020683F
:101970008168890710D5E18F00290DD000990129D0
:101980000AD1A16B09780173A06B401CA063E08FA2
:10199000401EE0870020009020688168C9070DD0B4
:1019A000E98800290AD0007B216C0870206C401C5B
:1019B0002064E888401EE88001200090FEF7E6FFE2
:1019C0000199411A0C98814202D3401C02D0B5E71C
:1019D0000028B3D0E08F0028C9D1E8880028C6D1FC
:1019E0002046019A0C9900F099FC002802D00127AA
:1019F00020202066206E002801D0012701E0012070
:101A0000687700202877384621E70000F8B50546BA
:101A100004464035287F0026944601280CD001203A
:101A20002877687F676801280CD0FA1FFD3A07D134
:101A3000A268002A04D101E00220F8BD042801D0E8
:101A40000226A8E0002926D06046002823D0002BDB
:101A500021D0687F042801D00520687700272766F9
:101A6000A163A387E38760462064AB80EB80E764D3
:101A70002765206841680322520391434160072291
:101A80000120E16812020003914221684A6804D9EA
:101A900082434A602BE001267DE002434A60616D8B
:101AA0004A69012189028A420BD1A18F3C4AC907A8
:101AB00021684B6833D013434B60E18F4908491CC0
:101AC000E187A16D4A69012189028A420FD121680B
:101AD0004A6882434A60E888C107216831484A68F9
:101AE00022D002434A60E8884008401CE880687FB2
:101AF00004281ED0A16D2C48C8622C48A16D8862B4
:101B0000A16D2B480863A06D4763EB882168226CA8
:101B10000C31A06DFEF712FE002825D10EE0934394
:101B20004B60E18F4908CBE782434A60E888400870
:101B3000DCE7A16D1F48C8621F48DFE720684168E5
:101B4000012211434160606DC762606D8762606D04
:101B50000763606D4763E38F2268A16B0C32606D91
:101B6000FEF7ECFD002804D0206E1021084320660B
:101B700091E720680168490603D4016840221143B7
:101B8000016020684168202211434160206841685B
:101B9000022211434160002028773046F8BD000042
:101BA0000040000000200000CD210008472200086E
:101BB000A1210008C3210008D72100087047704701
:101BC000094910B5401E884201D9012010BD074CBB
:101BD00060610321081F00F0B9FF0020A061072009
:101BE0002061002010BD0000FFFFFF0000E000E0CA
:101BF000704710B5040003D0E06F002802D007E062
:101C0000012010BD002178200155204600F026F863
:101C10002420E067206801684908490001602046E7
:101C200000F05EFE0128ECD0606A002802D0204659
:101C300000F0FEFC206841680922D2029143416015
:101C4000206881682A22914381602068016801220E
:101C500011430160204600F051FD10BD70B586B003
:101C6000064614216846FEF756FB20493068884234
:101C700039D11F49CA69012080040243CA61CA6977
:101C8000024005924A69400002434A6149690025C1
:101C90000140059130200090022001900320039024
:101CA00001200490029569461248FEF78FFD134CFF
:101CB000114820601020A56060602561656180206A
:101CC000A561E06003200003E0612046FEF70CFD03
:101CD000002801D0FEF7BCFC0948016882021143CC
:101CE00001603467666206B070BD000000480040C5
:101CF00000100240000800481C000240C0210020E3
:101D00000000014070B50446C06F202801D00220B9
:101D100070BD00290BD0002A09D00123A0681B0345
:101D2000984206D12069002803D1C80701D00120BC
:101D300070BD20464030E164028242820020254688
:101D4000803568602121E167216F002918D0154B8B
:101D50008B62236F1449D962236F14491963216F71
:101D6000134648632668E16C28363246206FFEF73A
:101D7000E5FC002804D0102068602020E067D6E74A
:101D8000216840200862EFF31080012181F3108860
:101D900021688A6880231A438A6080F310880020B3
:101DA00070BD00000D28000857280008C127000852
:101DB00070477047FEE701688A69D243920701D4F1
:101DC00000228A6200688169C943C90703D081691A
:101DD0000122114381617047F7B50446006882B063
:101DE000816900262746C9064037354600920029FA
:101DF00042DA1021C16131E00398401C2ED0FEF779
:101E0000C5FD0099411A0398814201D8002825D1C7
:101E100020684168012292031140BA788369DB434C
:101E20001B0416D401239B03994212D0202A10D000
:101E3000416819434160FEF7A9FD009009E0FEF7F3
:101E4000A5FD0099401A192803D920200543012631
:101E500004E020688069C0438006F0D4206880696F
:101E60008006C00F3043C7D0002E02D12168202049
:101E7000C86104200543012621688869C20504D58C
:101E8000012215431202CA610126410508D5082125
:101E90000D432268C901D1610126800502D40AE000
:101EA000800506D50220054321680002C86101268D
:101EB00001E0002E0FD02046FFF77DFF206841682B
:101EC000064A11404160606C2843606420207870AD
:101ED0000020B8703870304605B0F0BD00E800FE54
:101EE000890510B5890D12041143029C194302683B
:101EF0002143490050684908630D034C234398432C
:101F00000843506010BD0000FF63FF03F8B51E4694
:101F100017460D4604461EE0701C1CD0FEF736FD29
:101F20000699401AB04201D8002E14D12068816968
:101F3000284688430DD00020B8420CD1616C202087
:101F400001436164403460700020A0702070012063
:101F5000F8BD0120F0E7206881692846884304D055
:101F60000020B842D8D00020F8BD0120F9E70000D9
:101F7000F7B5202600270546044640353EE02046BA
:101F8000029A0199FFF728FF002801D00120FEBD29
:101F900020688069C04380061BD420688169C943DA
:101FA000490702D4218D00292DD18169C943C90671
:101FB00004D41021C1610420606400E067642068DB
:101FC000C66120684168114A114041606E70AF706F
:101FD00012E0FEF7DBFC01460298081A01998842DC
:101FE00001D800290AD120688069C043400705D57F
:101FF000606C304360646E702F70C7E72068806942
:10200000C0434007BBD40020FEBD000000E800FE36
:1020100070B516460D4604461EE032462946204657
:10202000FFF7DAFE002801D0012070BDFEF7AEFCFC
:10203000801BA84201D8002D0ED120688069C043C2
:10204000800609D5616C20200143616440346070D2
:102050000020A0702070E7E720688069C0438006F8
:10206000DBD4002070BD70B516460D46044620E056
:10207000324629462046FFF7AFFE002801D0012056
:1020800070BD681C15D0FEF781FC801BA84201D8EA
:10209000002D0ED120688069C043800709D5616C8E
:1020A000202001436164403460700020A0702070E3
:1020B000E5E720688069C0438007D9D4002070BD5F
:1020C00010B5134811490160124941600021816037
:1020D0000161416181610122C161C2600162FEF75B
:1020E000A5FC002801D072B6FEE700210848FEF7E3
:1020F00053FC002801D072B6FEE700210448FEF729
:1021000070FC002801D072B6FEE710BD00540040FC
:10211000F81F00200E09002010B511480F4901607A
:10212000FF21053141600021072281601202016117
:10213000C260012241615202826101621822416241
:10214000C26181620722C262016308214163FFF715
:10215000C4F9002801D072B6FEE710BD0038004077
:102160004C20002010B50C480A4901604B21C901E0
:10217000416000218160C16001618161C1610C2207
:10218000016242614162FFF734FD002801D072B65E
:10219000FEE710BD00480040B0200020FEE7704779
:1021A00010B5406A01684A68920892004A60016E60
:1021B00010221143016601225D210A54FFF78CF9B8
:1021C00010BD10B5406AFFF724FB10BD10B5406A82
:1021D000FFF7F5FC10BD70B50546446AFEF7D6FB67
:1021E000024628680068800629D4206841682025B6
:1021F000A9434160A068002808D16068C11FFD396B
:1022000004D1206841688908890003E0206841689A
:102210004908490041606421204600F043F8002845
:1022200000D02566002120464030C1800121417741
:10223000206E002803D02046FFF74EF970BD2046DF
:10224000FFF7E6FA70BD70B50546446AFEF79EFBDF
:10225000024628680068800620D42068416820254E
:10226000A94341606421204600F058F8002802D0BC
:10227000206E2843206620684168890889004160F3
:102280000021E18720464030C18001214177206E46
:10229000002803D02046FFF71FF970BD2046FFF746
:1022A0008DFC70BDF7B504464068FF26053682B048
:1022B0001546B0420CD10121A068C903884202D062
:1022C0004911884204D1206801684022914301608D
:1022D0000095002280212046039B00F0B1F82027C2
:1022E000002813D16068B04216D1A068B9028842B4
:1022F00002D0491188420FD10321009500224902E2
:102300002046039B00F030F8002805D0206E3843AB
:102310002066032005B0F0BD0020FBE7F8B50F46AE
:102320000B4615460092032104460022C90200F024
:102330001BF82026002812D13B460022802120468F
:10234000009500F07DF8002809D103213B460022CA
:1023500049022046009500F007F8002803D0206EBF
:10236000304320660320F8BDFFB585B00E46044615
:10237000002069460E9D17460871FEF707FB411BBA
:102380000898451AFEF702FB0390206823210C30C1
:1023900002902A4800684843000D684346E0032045
:1023A0004002864206D1002F04D102980178684687
:1023B000017100790898401C39D0FEF7E7FA0399BB
:1023C000401AA84205D2002D03D0009800282BD037
:1023D0002BE020684168E022914341606068C11FA2
:1023E000FD390CD10121A068C903884202D04911EE
:1023F000884204D120680168402291430160012095
:10240000A16A4003814207D121680A6882430A60B9
:1024100021680A6802430A60012040346077002086
:102420002077032009B0F0BD0025401E00902068F1
:1024300080683040B842B2D10020F3E72800002085
:10244000FFB581B01E4604460A9DFEF79FFA401B69
:10245000351AFEF79BFA0746264800684001000D32
:10246000684339E0701C38D0FEF790FAC01BA842D0
:1024700005D2002D03D0009800282BD02BE0206837
:102480004168E022914341606068C11FFD390CD171
:102490000121A068C903884202D04911884204D1B1
:1024A000206801684022914301600120A16A400335
:1024B000814207D121680A6882430A6021680A685C
:1024C00002430A6001204034607700202077032017
:1024D00005B0F0BD0025401E00902068816802987C
:1024E000884305D0002103988142BBD10020EFE74B
:1024F0000121F8E7280000207047000010B50121F5
:10250000042000F036FD0121042000F032FD0221FC
:10251000042000F02EFD0FA000F07AF808214120E1
:1025200000F091FB0028F9D00AA000F071F80CA08F
:1025300000F06EF800F0DCFC0F4900228A610F4ABF
:102540000861904200DB104648610D484860FEF784
:1025500003F810BD41434B204D41524B2100000078
:1025600041434B20434D4420436170747572652094
:10257000646F6E652100000000000020E50F000080
:102580002C00002010B5FEF7EDFB10BD10B598B083
:1025900034216846FDF7BFFE00240D940E940F947D
:1025A0001C2111A81094FDF7B6FE02200090012016
:1025B00003901020099404906846FEF78BFD0028D4
:1025C00001D072B6FEE707200D900E940F94002103
:1025D00010940DA8FEF7B2FC002801D072B6FEE7F9
:1025E00020201190159411A8FEF71AFC002801D0A4
:1025F00072B6FEE718B010BD704700000349CA6903
:102600001206FCD50149203108817047004800407E
:1026100000B5034602E0FFF7F1FF5B1C18780028C5
:10262000F9D10A20FFF7EAFF0D20FFF7E7FF00BD11
:1026300010B5818CC90707D001684A6801235B0483
:102640009A43836A1A434A60818C890707D50168D7
:102650004A6801231B049A43C36A1A434A60818C67
:10266000490707D501684A6801239B049A43036B15
:102670001A434A60818C090707D501684A6801231B
:10268000DB039A43436B1A434A60818CC90607D522
:102690000268916801231B039943836B194391607E
:1026A000818C890607D501688A6801235B039A43F8
:1026B000C36B1A438A60818C490612D503685A6835
:1026C00001210905046C8A4322435A60026C8A4244
:1026D00007D10268516803235B059943436C194392
:1026E0005160818C090607D501684A680123DB0423
:1026F000806C9A4302434A6010BD0000FEB5074655
:102700000025803704467D60FEF740F9019020687F
:102710000068264600076036002819DA274800902E
:102720000121002249052046019B00F089F900287B
:102730000ED0EFF31080012181F3108821680A6820
:1027400080239A430A6080F310882020E06729E004
:1027500020680068400728D5184800900121002211
:1027600089052046019B00F06BF900281DD0EFF38E
:102770001080012181F3108821680A68FF2321332A
:102780009A430A6080F31088EFF31080012181F3EF
:10279000108821688A68520852008A6080F3108885
:1027A0002020386035760320FEBD2020E0673860A9
:1027B0002566656635760020FEBD0000FFFFFF013F
:1027C000F8B5446AE06F254680352E68216889682F
:1027D00000270906002906DA212804D152200753D0
:1027E000204600F06DF820688068400606D5222E4D
:1027F00004D15A200753204600F032F868681021AF
:10280000084368602046FFF7F3F9F8BD10B50146AC
:102810008969406A20291BD0002252210A52EFF315
:102820001081012282F31088026893688024A343F8
:10283000936081F31088EFF31081012282F31088F6
:102840000068026840231A43026081F3108810BDBB
:10285000FFF7AEFA10BD10B5406AFFF7AAFA10BD37
:1028600010B5EFF31081012282F31088026813681B
:10287000FF242134A343136081F31088EFF3108108
:10288000012282F31088026893685B085B00936002
:1028900081F31088016E01290BD1EFF31081012221
:1028A00082F31088026813681024A343136081F335
:1028B0001088202280210A5000210166816610BD07
:1028C00010B5EFF31081012282F3108802681368BB
:1028D000C024A343136081F310882021C16710BD79
:1028E00070B5044680682169E26908436169002582
:1028F0001143226808431168494B19400143116094
:1029000020684168032212039143E2681143416049
:10291000A169206A2268084391680B231B0299432E
:10292000014391603F4A20683F4990420AD1086BB9
:102930008007800F22D0012816D0022816D0032845
:102940001ED10FE0394A904212D1096B03200004D6
:10295000014016D001200004091A05D0091A05D03B
:10296000081A0DD102210CE004210AE0082108E038
:102970002F49884202D02F49884201D1002100E02E
:1029800010210120E369C0032B4A2C4E834222D13F
:10299000002906D0022907D0042907D0082935D1FB
:1029A00008E0FEF753FB03E0104603E0FEF75EFB92
:1029B000002830D0616840004A088018FDF7ADFC5F
:1029C00001461039B14221D81C49491C0140000779
:1029D000400F08431DE0002906D0022907D0042932
:1029E00007D0082912D108E0FEF730FB03E01046BB
:1029F00003E0FEF73BFB00280DD061684A08101881
:102A0000FDF78BFC01461039B14201D9012502E0E6
:102A100080B22168C8600020A066E066284670BDCC
:102A2000F369FFEF0038014000100240004400400D
:102A300000480040004C004000127A00EFFF000008
:102A4000FFB5064681B080360546044660350A9FCC
:102A50002FE0781C2DD0FDF799FF01460498081A45
:102A6000B84214D8002F12D020680168490720D539
:102A7000C169C94309070CD4082707622046FFF73C
:102A8000EFFE776000202876012005B0F0BD03201E
:102A9000FBE7C069C04300050BD401202168C002D8
:102AA00008622046FFF7DCFE2020706000202876B8
:102AB000EDE72068C1690298884305D0002103989A
:102AC0008142C6D00020E0E70121F8E710B50EA052
:102AD000FFF79EFD0E4C012240212046FDF750FFDE
:102AE0000C4880880C4B1A46083AD1685854032980
:102AF00007D0491CD160002240212046FDF740FF4D
:102B000010BD0021F6E700004952514800000000C6
:102B1000000800482048004008000020F8B5040CD8
:102B20008BB2264682B25E430D0C1046370C5843DA
:102B3000360480190021794116466E43370C36045D
:102B40008019794126466E438919F8BD8307FF2213
:102B5000DB0E9A408907090E9940002808DB83089C
:102B600009489B001B181868904308431860704779
:102B70000007000F0838830804489B001B18D86919
:102B800090430843D861704700E400E000ED00E0A6
:102B900031B584B000216846017209250A46ED0668
:102BA00010212846FDF7ECFE00F042F864240123D2
:102BB00001AA04A90A480094FEF72CFE012301AAE9
:102BC00002A907480094FEF725FE00F031F8012223
:102BD00010212846FDF7D4FE6846007905B030BDC7
:102BE0004C20002033B50925ED0683B000221021CA
:102BF0002846FDF7C5FE00F01BF86424012301AA56
:102C000003A90A480094FEF705FE012301AA04A9BE
:102C100006480094FEF7FEFD00F00AF8012210219C
:102C20002846FDF7ADFE012005B030BD4C20002048
:102C300008B50020694608800888052802D0088861
:102C4000401CF8E708BD10B50C4600F063F92040C1
:102C500010BD00008AB0FEF78DF8FFF797FC5F4CBF
:102C600061690120C004014361616169014005910E
:102C700061694010014361616169014005916169C9
:102C8000401001436161616901400591606901255E
:102C900028436061606900222840059011460A209F
:102CA000FEF7BAF80A20FEF7ABF8002211460B2017
:102CB000FEF7B2F80B20FEF7A3F8FFF753FAFFF781
:102CC0002BFAFFF7FDF91422454905A8FDF74CFA48
:102CD0000926F60605A93046FDF778FD01221021E8
:102CE0003046FDF74DFEE06902210843E061E069EE
:102CF0002843E0613A49142214396846FDF734FA52
:102D000069463848FDF762FD37496004086037A01E
:102D1000FFF77EFC7D25ED005521002000F029F90C
:102D2000002000F0F7F80446552809D035A0FFF739
:102D30006FFC2046FFF762FC2846FDF735FDEBE708
:102D400038A000E03EA0FFF763FC0121FF2000F067
:102D5000E7F805A90A2000F0B5F806A90B2000F055
:102D6000B1F86846007D2628ECD13EA0FFF750FC64
:102D70000121FF2000F0D4F88021122000F0D0F8CB
:102D80003F4800F0DDF816488A3800F0D9F81448BA
:102D9000763800F0D5F80121FF2000F0C1F80021BD
:102DA000152000F0BDF80E48643800F0C9F8354D24
:102DB000002435A0FFF72CFCFFF7A0FB6878002863
:102DC00003D06C70FDF7EAFBF8E728780028F5D00F
:102DD0002C7036A0FFF71CFCEBE70000001002404F
:102DE000883100080008004800E100E041434B2022
:102DF000434D44204172647543414D2053746172C8
:102E00007421000041434B20434D4420535049203E
:102E1000696E74657266616365204572726F7221B6
:102E20000000000041434B20434D442053504920B3
:102E3000696E74657266616365204F4B2100000006
:102E400041434B20434D442043616E277420666903
:102E50006E64204F5632363430206D6F64756C6569
:102E60002100000041434B20434D44204F56323651
:102E700034302064657465637465642E000000005E
:102E8000802F00080000002041434B20434D442088
:102E9000426567696E6E696E672073696E676C65FF
:102EA00020636170747572652E00000041434B20F1
:102EB000434D4420547820636F6D706C65746521B8
:102EC0000000000033B581B00C466425022301AA3E
:102ED000602106480095FDF78BFE01232246612103
:102EE00002480095FDF7FCFD00203EBDF81F0020C4
:102EF00070B5422000F00EF80446432000F00AF8B6
:102F00000546442000F006F84006400A290208431E
:102F1000204370BD10B54006400EFFF739FE10BDCE
:102F20001CB56A461071517164200090022301AAF9
:102F300060210248FDF75CFE00201CBDF81F002048
:102F400070B504460020054608E0267865783046CE
:102F50002946FFF7E5FFA41CFF2E01D0012100E068
:102F60000021FF2D01D0012200E000221143ECD10D
:102F700070BD10B580221043FFF734FE10BD000075
:102F8000FF002CFF2EDFFF013C3211000902042854
:102F900013E514482C0C33783A333BFB3E004311C5
:102FA0001610399235DA221A37C3230034C0361A84
:102FB000068807C00D870E414C0048005B004203A5
:102FC0004A8121992440253826825C006300617083
:102FD00062807C05208028306C006D806E0070025D
:102FE000719473C112401711184319001A4B32091A
:102FF00037C04F6050A86D003D38463F4F600C3CD5
:10300000FF00E57FF9C04124E01476FF33A04220A1
:1030100043184C0087D5883FD703D910D382C808FE
:10302000C9807C007D007C037D487D487C087D2034
:103030007D107D0E9000910E911A9131915A9169F7
:103040009175917E9188918F919691A391AF91C442
:1030500091D791E891209200930693E3930593050D
:1030600093009304930093009300930093009300C4
:1030700093009600970897199702970C972497301A
:103080009728972697029798978097009700C3ED07
:10309000A400A800C511C651BF80C710B666B8A568
:1030A000B764B97CB3AFB497B5FFB0C5B194B20FF4
:1030B000C45CC064C14B8C00863D500051C8529620
:1030C0005300540055005AC85B965C00D300C3ED12
:1030D0007F00DA00E51FE167E000DD7F05001240B8
:1030E000D304C016C1128C00863D5000512C5224CE
:1030F0005300540055005A2C5B245C00FFFFFF0076
:103100000500DA10D703DF0033803C40E177000090
:10311000FFFFE014E177E51FD703DA10E000FF01BD
:103120000408FFFFFF0112401711184319001A4B42
:1031300032094FCA50A85A236D00391235DA221AC3
:1031400037C3230034C0361A068807C00D870E41E6
:103150004C00FF00E004C064C14B8635509251C85A
:10316000529653005400550057005A285B1E5C00CD
:10317000E000FFFF40000000010000000000000030
:10318000000000000000000010000000010000002E
:10319000030000000000000000000000020304051E
:1031A000060708090A0B0C0D0E0F1010010203048C
:1031B00005060708090A0B0C0D0E0F100000000091
:1031C00000000000010203040607080900000000D7
:1031D00001020304F4310008000000202C0000006C
:1031E00004010008203200082C0000203C280000C8
:1031F00020010008000000000000000000000000A6
:1032000000000000000000000000000000000000BE
:1032100001000000040000000000000000127A001D
:04000005080000C12E
:00000001FF
