:020000040800F2
:10000000682800206501000855220008ED1D000841
:1000100000000000000000000000000000000000E0
:100020000000000000000000000000001926000889
:100030000000000000000000572200081B260008F6
:1000400077010008770100087701000877010008B0
:1000500077010008770100087701000877010008A0
:1000600077010008770100084902000885020008AE
:100070007701000877010008770100087701000880
:100080007701000877010008770100087701000870
:100090007701000877010008770100087701000860
:1000A000770100087701000877010008B92B0008E4
:1000B0007701000877010008770100087701000840
:1000C00000F002F800F03EF80CA030C80838241800
:1000D0002D18671EA246AB4654465D46AC4201D180
:1000E00000F030F87E460F3EB6460FCC0126334274
:1000F00000D0FB1A3343A246AB461847805C000091
:10010000A05C0000103A02D378C878C1FAD8520730
:1001100001D330C830C101D504680C6070470000BD
:100120000023002400250026103A01D378C1FBD813
:10013000520700D330C100D50B6070471FB51FBDFB
:1001400010B510BD00F04DF81146FFF7F7FF02F0B3
:1001500059FE00F065F803B4FFF7F2FF03BC00F0AE
:100160006BF800000748804707480047FEE7FEE7B6
:10017000FEE7FEE7FEE7FEE704480549054A064BB1
:100180007047000023260008C100000868220020F4
:1001900068280020682400206824002001E004C0B2
:1001A000091F0429FBD28B0701D50280801CC907D7
:1001B00000D00270704700290BD0C30702D0027034
:1001C000401C491E022904D3830702D50280801CEB
:1001D000891EE3E70022EEE70022DFE77047704761
:1001E0007047754600F024F8AE4605006946534650
:1001F000C008C000854618B020B5FFF7BDFF60BC41
:10020000B64600260027C0C5C0C5C0C5C0C5C0C50C
:10021000C0C5C0C5C0C5403D490849008D467047AE
:1002200010B50446C046C0462046FFF794FF10BDF7
:10023000004870471000002001491820ABBEFEE7BF
:10024000260002007047000080B56D4800688006F7
:100250000BD508480178002907D0074901220A7008
:100260000021017005482021C167054800F02AF8E7
:1002700080BDC0467200002070000020DC210020FC
:100280003421002010B55E480068800408D509209C
:10029000C00610210124224600F0D6F9044804705B
:1002A000044800F00FF8044800F00CF810BDC046F8
:1002B00071000020AC200020F0200020EFF310801F
:1002C00072B6FEE7F0B585B0C16B026C04273D46FF
:1002D0000292954003910C68294621404A424A41C6
:1002E000049000680668314639404B424B41134345
:1002F0002FD0019001200227314639404D424D4117
:10030000029B9F40224627420446014600D02946D0
:1003100004980546203500292AD008210E4077424E
:100320007741DA40110700D53C46002C1ED1019CD4
:1003300021680E229143216001210A469A40039BC5
:100340005A60816300222A706970016B00290CD108
:100350000CE00168890602D40168B9430160039981
:100360004D600498C16A002900D0884705B0F0BDEF
:1003700001990968890601D4012169700021297059
:1003800003994F60816A0029EFD1EFE7F0B585B09E
:1003900000282FD004460646203602207070A2CCDA
:1003A000236860680190A0680290E068039020696B
:1003B00004900868114A02402A433A431A430198BC
:1003C00002430298024303980243049802430A60DE
:1003D0000025E5620A48206335700A480C3C08187D
:1003E000142105F0C5FA80002064012070702846B1
:1003F00005B0F0BD0125284605B0F0BD0FC0FFFFD8
:1004000000000240F8FFFDBFF0B582B00446202096
:10041000255C0220012D2AD0264620360125357084
:100420007778012F21D1022070700020A063266808
:100430003768AF433760E76B0097276C0195BD4085
:10044000009F7D6073606368102B174600D00F46D5
:10045000B760102B00D01146F1603168E26A002AC3
:10046000019B06D00E22114309E00021317002B039
:10047000F0BD0A221143316031680422914331609A
:1004800031681943316002B0F0BD0000B0B50446D8
:1004900000F0E2F80546601C02D004480078041918
:1004A00000F0DAF8401BA042FAD3B0BD00000020F3
:1004B000F0B58AB002900D68002D00D1B9E05E4819
:1004C000029A824201D0052000E004201723DB06B7
:1004D000D2180A23DA410092042A00D300900027A0
:1004E0003B463C4608912A460BE013433360079B8A
:1004F000641C0A681046E040BF1C1B1D002800D188
:1005000097E001200646A6403240F1D004900793C0
:1005100003200346BB400397DF4349680D4605406F
:100520006B1E012B0697059113D80192029A9068D1
:100530003840089BDB68039FBB4003439360C806B9
:10054000C00FA0405368B3431646019A034373603B
:1005500006E0032D029E039F02D10546079B1EE085
:10056000F0680699084008998B68BB400343F36024
:10057000022D079B13D11C2018400F218140E30856
:100580009B00F3181D6A8D43089E31698140294301
:100590001962079B7068029E032505900540BD40C7
:1005A0003068069908402843306005988003800F22
:1005B0000899049D9CD0224908682843086008686F
:1005C000284009900C2018400F2181400323254624
:1005D0009D43099B1B4EAB598B43009981401943A6
:1005E000A9510899154EB5684868C3020FD515433F
:1005F000B560F56883020FD49543F5607568830391
:100600000FD4954375603368C00310D56DE79543EB
:10061000B560F5688302EFD51543F560756883030F
:10062000EFD5154375603368C00300D55DE793438C
:100630005CE70AB0F0BDC04600100048000401406D
:100640001810024008000140002A02D018228150F0
:100650007047282281507047014800687047C046A3
:1006600064220020B0B50246034640335C78022085
:10067000202C17D11C78012C14D02420587010681D
:1006800002680124A24302602203056895430560C5
:1006900002680A430260016821430160002018706B
:1006A00020215970B0BDB0B50246034640335C7896
:1006B0000220202C17D11C78012C14D02420587033
:1006C000106802680124A24302600F22120205682A
:1006D000954309022943016001682143016000201C
:1006E000187020215970B0BDF0B581B0002822D01B
:1006F0000446054640356878002804D1002028705B
:10070000204600F0D7F92420687020680268012193
:100710008A4302600F221206636893430361836871
:10072000194A13408360A368E668012E06D1CE0300
:10073000334383600AE0012001B0F0BD2127BF02EE
:100740003B438360022E01D1CB02436043680F4ECE
:100750001E434660C3681340C36022696369134344
:10076000A26912021A43C260E269236A134303605A
:1007700002680A43026000206064202169702063DF
:10078000A87001B0F0BDC046FF7FFFFF00800002EF
:10079000F0B587B0069104460146403148780225FD
:1007A000202800D0A1E005910878012800D19CE024
:1007B00003930492012505980570FFF74DFF064647
:1007C00021688869000419D42220059A50701020ED
:1007D000907000226264039860850498606262638E
:1007E000608D000AAC4D02921DD0069A2A404868DE
:1007F000AA4D0540091DFF2346481FE0EF0302E014
:1008000088693842E0D0FFF727FF801B21681A284B
:10081000F6D388693842F3D0606C202108436064C5
:10082000059A51706EE0638D48689C4A02400698B4
:100830002840DDB22D042D18091D35480C9F2A4390
:1008400002430A602385608D002846D006989249AD
:100850000840069012E0608D208521684A68924B1E
:100860001A40C0B20004104301225206091D069B23
:10087000184310430860608D00282ED0204639466A
:10088000324601F0E3FB012500282ED1606A216881
:10089000496A0170608D401E6085606A401C60621C
:1008A000208D401E2085618D0029E4D00004E2D116
:1008B00000968021002220463B4601F057FB00288D
:1008C00013D1608D000AC6D0FF20208521684868BA
:1008D000754A1040091D754AC9E720463946324617
:1008E00001F022FC002803D00125284607B0F0BD06
:1008F00020682021C16142686D4B13404360059A16
:100900005170029D002010709070284607B0F0BD15
:10091000002400020024FF01F0B587B006910446D0
:100920000146403148780225202800D0A0E00591FA
:100930000878012800D19BE00393049201250598D3
:100940000570FFF789FE064621688869000419D4FE
:100950002120059A50701020907000226264039844
:100960006085049860626263608D000A4A4D02925D
:100970001DD0069A2A404868484D0540091DFF23AE
:1009800048481FE0EF0302E088693842E0D0FFF7F3
:1009900063FE801B21681A28F6D388693842F3D099
:1009A000606C202108436064059A51706DE0638D8E
:1009B00048683A4A024006982840DDB22D042D18B6
:1009C000091D37480C9F2A4302430A602385608D26
:1009D000002845D0069830490840069012E0608D06
:1009E000208521684A68304B1A40C0B20004104389
:1009F00001225206091D069B184310430860608DB2
:100A000000282DD020463946324601F0D0FB012582
:100A100000282DD12068616A0A788262608D401EAC
:100A20006085481C6062208D401E2085618D0029F4
:100A3000E5D00004E3D100968021002220463B4609
:100A400001F094FA002813D1608D000AC7D0FF206E
:100A5000208521684868144A1040091D134ACAE7D6
:100A600020463946324601F05FFB002803D00125BD
:100A7000284607B0F0BD20682021C16142680C4BB8
:100A800013404360059A5170029D002010709070D1
:100A9000284607B0F0BDC046FF030000009800FCE8
:100AA000002000020020FF01009C00FC0000FF016C
:100AB00000E800FEB0B586B000681349884201D056
:100AC00006B0B0BD114C206801250595A904084366
:100AD00020602068084000900320049000200390CC
:100AE00012200290C02001900098094801A9FFF748
:100AF000DFFC6805A1680143A160A1680140009185
:100B0000009806B0B0BDC04600540040141002402A
:100B1000000400481A48007802490A681018086062
:100B20007047C0466422002080B5DD48016810226D
:100B30000A430260032000F005F800F023F80020CB
:100B400080BDC04670B504467D20C0000C4E317893
:100B500004F00EFF0146DC48006804F009FF01F0D4
:100B600049F80125032C08D8002806D10025E843C0
:100B700021462A4600F028F87460284670BDC04619
:100B80000000002082B00948016801221143016081
:100B90000168114001910199110742680A434260BE
:100BA000406808400090009802B07047181002405A
:100BB000002805D41F21084001218140014801601F
:100BC0007047C04600E100E0002805D40322034638
:100BD00093430A4A9A1803E00C220240064BD218AB
:100BE0008007C00E8901C9B28140FF23834010688D
:100BF000984308431060704714ED00E000E400E003
:100C0000F0B585B004468078C0074C4B4FD001202A
:100C1000039001071A1F10680840029006D110685F
:100C200008431060106808400490049800920191F5
:100C3000434E3068C00513D4039807023068384328
:100C40003060FFF709FD05463068384208D1FFF7EC
:100C500003FD401B6428F7D90325284605B0F0BDE5
:100C600003252802354B1968014012D06268024002
:100C700091420ED00398000419681A6802431A6062
:100C80001A6882431A6008462E4A10401860C80746
:100C900045D118682B4908406168014319600298E2
:100CA000002804D1009A10680199884310602068D8
:100CB000C10709D181070FD4810616D481031CD442
:100CC00000254005C9D521E0196903229143A26896
:100CD0000A431A618107EFD5032109041A698A437F
:100CE000E168114319618106E8D519691022914321
:100CF00022690A431A618103E2D51969802291436E
:100D0000A2690A431A6100254005A6D51869402149
:100D10008843616901431961284605B0F0BDFFF7BA
:100D20009BFC06465F4F054B18688007B1D4FFF760
:100D300093FC801BB842F6D98FE7C04620100240D2
:100D400000700040FFFCFFFFF0B581B0002847D0E5
:100D50000446534A1368012003408B4208D21368AB
:100D60000126B3430B431360126832408A4238D1E4
:100D7000009121688A076B4B11D54A0707D50722D6
:100D80001202684B1B681343664A1360654B1A686E
:100D9000F0239A43A3681343624A1360614BC90767
:100DA00022D13F49086801263040009A904205D977
:100DB0000868B04308600868C00712D1207840076F
:100DC00006D50720000219688143E06808431860CF
:100DD0001A681007810F5448022912D2044650E0C5
:100DE0000126304601B0F0BD616803290DD01A1FFD
:100DF00002290FD0012912D1126892030646F0D5BC
:100E000011E0032926D1494C3BE01A6B92030646B8
:100E1000E7D508E0126892010646E2D503E01268C1
:100E200092070646DDD518680326B04308431860CC
:100E3000FFF712FC07461B4D3A4B18680C21014086
:100E4000606880008142ACD0FFF706FCC01BA8425E
:100E5000F2D9C6E70321CB033249896A0F240C403B
:100E60003349095D94021A40240F324D2C5D9A4299
:100E700002D033049A4200E02C4804F079FD444348
:100E8000284B18680006000F0749085CC4400E484C
:100E900004600320FFF756FE0026304601B0F0BD87
:100EA0000020024088130000665B000806480068C6
:100EB0007047C046044800681A4909684905490F47
:100EC000024A515CC840704708000020765B000869
:100ED000B0B514490A681007830F1348022B00D2DB
:100EE000B0BD032B01D11148B0BD0323DB03896AD8
:100EF0000F240C400E49095D94021A40240F0D4D39
:100F00002C5D9A4207D001231B049A4204F030FD65
:100F100044432046B0BD054804F02AFD4443204622
:100F2000B0BDC0460410024000127A00006CDC0222
:100F30005C5D00084C5D0008F0B587B004460120F8
:100F4000002C00D145E204902078C007F94E0594AA
:100F50000CD071680C200140042900D090E030686A
:100F6000800303D56068002800D120E12078800745
:100F700021D570680007800F0ED070680C210140E9
:100F8000082900D09DE00320C003716801400120C2
:100F9000C003814200D094E030688007059C03D5EF
:100FA000E068012800D002E13068F8218843216917
:100FB000C90001433160059C2078000724D42078C3
:100FC000400737D42078C00600D4D3E005984069A4
:100FD000411D00D1C2E0012800D030E1706B042136
:100FE00001437163706B012101437163FFF734FBAF
:100FF0000546706B800700D5B4E0FFF72DFB411B61
:1010000003200229F5D9E4E1706AE169002900D1E1
:1010100081E0012108437062FFF71EFB0546706AFC
:101020008007CCD4FFF718FB401B0228F7D9032018
:1010300007B0F0BD012003900107F069084002905D
:1010400006D1F0690843F061F069084006900698FF
:101050000191E14F3868C0054AD40398040238680A
:1010600020433860FFF7F8FA0546386820423FD140
:10107000FFF7F2FA401B6428F7D9032007B0F0BD50
:1010800071680140082908D10320C003716801403C
:1010900001200004814200D161E76168012047041A
:1010A000002900D117E1052900D12BE1012900D148
:1010B0002CE1010432688A4332608104306888433D
:1010C00027E13068059CE168002936D001210843FA
:1010D0003060FFF7C1FA05463068800700D563E746
:1010E000FFF7BAFA401B0228F6D9032007B0F0BD7B
:1010F00005988068002800D1B6E0052800D1C9E035
:10110000012800D1CAE0306A039988433062306A0E
:1011100004218843C5E0012188437062FFF79CFAEF
:101120000546706A800700D449E7FFF795FA401B2F
:101130000228F6D9032007B0F0BD012188433060B2
:10114000FFF78AFA05463068800700D433E7FFF7D7
:1011500083FA411B03200229F5D93AE1706B04217F
:1011600088437063706BF821884305998969C900C9
:10117000014371630598007880060BD571680C20D7
:1011800001400C2939D1706B800303D50598006AA2
:1011900001280CD10598446A002C00D1E1E0706868
:1011A0000C210140082905D1012C00D0C4E004988D
:1011B00007B0F0BD0120020631680492914331600E
:1011C0004706FFF749FA0546022C0BD1049C30680C
:1011D000384200D1DEE0FFF73FFA411B032002292D
:1011E000F5D9F6E03068384200D1BAE0FFF734FABA
:1011F000411B03200229F5D9EBE071680140082961
:1012000005D10320C003716801408142BBD0706BDF
:101210000599096A002900D1A9E001210A041043B7
:1012200070634C04FFF718FA0546706B2042B1D189
:10123000FFF712FA411B03200229F6D9C9E0706BAF
:10124000042101437163706B012188437063FFF7D0
:1012500003FA0546706B80078CD5FFF7FDF9411B3B
:1012600003200229F6D9B4E0306A0399884330623A
:10127000306A042188433062584CFFF7EDF9054687
:10128000306A80071DD5FFF7E7F9411B0320A14213
:10129000F6D99EE0306A042101433162306A039935
:1012A000084330624D4CFFF7D7F90546306A800796
:1012B00007D4FFF7D1F9401BA042F7D9032007B0AC
:1012C000F0BD02980028059C00D07BE6F0690199EA
:1012D0008843F06176E6010432688A433260800414
:1012E000316881433160FFF7B7F90546059C3068E6
:1012F000384200D13AE6FFF7AFF9411B03206429D9
:10130000F5D966E0810432680A433260010430682E
:1013100008433060FFF7A0F905463068384200D036
:1013200024E6FFF799F9401B6428F6D9032007B09B
:10133000F0BDC046001002400320C20370680240A6
:10134000F16A059CA36A9A42049D0DD10F221140B7
:10135000236B994208D191040840E16A88422846EB
:1013600037D1002007B0F0BD284607B0F0BD0121FD
:101370000A04904370634C04FFF76EF90546706BE6
:10138000204200D106E7FFF767F9411B032002293D
:10139000F5D91EE0F06A0F218843059A116B0143CD
:1013A000F1627B20C00371688143D06A0843916A6F
:1013B00001437160306820433060FFF74DF9044607
:1013C00030683842CDD1FFF747F9011B03200229CD
:1013D000F6D907B0F0BDC046007000408813000089
:1013E00070470000F0B585B000280CD004460546D3
:1013F0005C3541208600606A002807D0002020610B
:101400002046143007E0012005B0F0BD6068B0420E
:1014100003D020461C30002101600027A7626878B5
:10142000002804D100202870204600F057F8022040
:1014300004950190687020680168402291430390F0
:101440000160E168B84A012591422A4600D33A4634
:101450001203ED020D430F2738020290854201D09E
:101460000025A5626568A768354021239B023B40A3
:101470005B192569019805401D43606901231840E7
:101480002843FC36A7693E400643E06938250540FD
:101490003543206A802606402E435803A56A05403E
:1014A0003543039E3560380C042505400298014001
:1014B0000A432A43606A102101401143606B0822ED
:1014C00002400A437260D802F1698143F161002051
:1014D000206604994B7005B0F0BDC046F0B58BB0E6
:1014E00002683B498A4201D00BB0F0BD0390012550
:1014F000AA033848816811438160816805921140D0
:1015000006910699E90402680A43026002680A40EB
:1015100006920699A90402680A430260006808401E
:10152000069006980A950324099400270897022636
:10153000079608200690284806A90191FEF7B8FFF3
:101540000A97049409940897029607966C030694E8
:1015500022480199FEF7ACFF214E8020214DA0C604
:10156000376000907060B760F76037610194746114
:10157000083E3046FEF70AFF002801D0FEF79EFE27
:10158000039C7462A665184E102014353560706097
:10159000B7600098F06037617761B7610198F061DA
:1015A0003046FEF7F3FE002801D0FEF787FE746296
:1015B00066650A970498099008970298079005981D
:1015C000069006A90548FEF773FF0BB0F0BDC046B4
:1015D0000038004014100240000800480004004891
:1015E000AC20002044000240F0200020F0B583B081
:1015F000054606464436707E012813D113460A4636
:10160000A868002814D1412189006C688C420FD150
:10161000042070762846114600F00EFA0446204653
:1016200003B0F0BD022400203076204603B0F0BDA8
:10163000317E012903D10224204603B0F0BD0124EC
:101640003476002AEFD0002BEDD0042171760024EF
:101650002C6673802A643380EC642C65AC87EC873D
:10166000296801230293DB03984208D108684023CC
:1016700098430860012080030B6883430B6048682F
:10168000284B184048604868EB68EA4FBB4205D3D6
:1016900001231B0398434860A86D1FE0029B1F03B2
:1016A0000197384348609F02A86D4369BB4215D13A
:1016B0004B68019FBB434B6077884B68FF0705D1A0
:1016C000184F3B404B6073885B0806E0029F7F0326
:1016D0003B434B6073885B085B1C7380144F154B56
:1016E0008762C362114B0363446373880C31FEF756
:1016F0008BFE002803D060351020029C0DE0286886
:101700000168490603D4016840220A430260416827
:1017100020220A434260051D0120296801432960F7
:1017200081E7C046FFDFFFFF0107000059220008E4
:101730008F2200087B22000870477047F0B585B003
:10174000044607464437387E012802D1022005B0FE
:10175000F0BD1D460292039101263E76FEF77CFF06
:101760000490797E01297CD10398002800D188E07B
:101770000298002800D184E0002D30467DD0787E8C
:10178000042801D005207876002323667D80E58734
:10179000E168A84A012001919142064600D31E4605
:1017A0003603020320684168914389194160029918
:1017B00021643D800399A163E3642365A5870168E3
:1017C000490603D4016840220A4302600A9E616808
:1017D0004A424A41691E4B424B4113430199FE4A1A
:1017E000914253D3002B07D0039A1188C160901CFB
:1017F000A063E08F401EE087701C049B00D189E04D
:10180000012505E0FEF728FF049BC01AB0427FD2F5
:10181000E08F002803D17888002800D1D7E0206825
:10182000816889070DD5E18F00290AD0012D08D1E3
:10183000A16B0A88C260891CA163E18F491EE18700
:1018400000258168C907DDD079880029DAD0216CAC
:10185000C0680880881C20647888401E7880012534
:10186000D0E74120820063680220934205D1A2683C
:10187000002A02D1042900D176E70021397605B08B
:10188000F0BD30460021397605B0F0BD002B08D000
:10189000039909780173A06B401CA063E08F401E80
:1018A000E087701C049B62D0012505E0FEF7D4FEA2
:1018B000049BC01AB0422BD2E08F002803D1788855
:1018C000002800D183E02068816889070FD5E18F67
:1018D00000290CD0012D0AD1A16B09780173A06BEE
:1018E000401CA063E08F401EE087206800258168CF
:1018F000C907DBD079880029D8D0007B216C08701B
:10190000206C401C20647888401E78800125CDE73B
:10191000032088E0012502E0FEF79EFE049BE08F95
:10192000002802D17888002851D020688168890772
:101930000DD5E18F00290AD0012D08D1A16B0A88AD
:10194000C260891CA163E18F491EE187002581687F
:10195000C907E1D079880029DED0216CC0680880F1
:10196000881C20647888401E78800125D4E70125F2
:1019700002E0FEF771FE049BE08F002802D1788818
:10198000002824D02068816889070FD5E18F0029BD
:101990000CD0012D0AD1A16B09780173A06B401CFA
:1019A000A063E08F401EE087206800258168C9079A
:1019B000DFD079880029DCD0007B216C0870206C96
:1019C000401C20647888401E78800125D1E70320E0
:1019D0000490C102204632461D4600F005FD002855
:1019E0000FD1204631462A4600F0AEFD002808D12E
:1019F00004984102204632462B4600F0F5FC0028B0
:101A00000DD0206E20210843206621660120216E22
:101A1000002908D001200021397605B0F0BD002052
:101A2000216E0029F6D1012179760021397605B0A1
:101A3000F0BDC04601070000F0B583B0044607467C
:101A40004437387E012803D10225284603B0F0BD73
:101A5000012038767E7E012E2AD100294DD0002A21
:101A60004DD0002B054600D1B0E00191787E0428CE
:101A700001D00520787600252566E3877B8003204A
:101A8000400321684E6886434E60A3870198A06397
:101A9000029222643B80E56425654E68E0684E4A08
:101AA0009042009516D30120000386434E6048E023
:101AB000019102924125A900626802258A4200D064
:101AC00084E0A268002A00D080E0042E029A0199E6
:101AD000C3D07BE001200203019216434E608602D0
:101AE000626D5269B24214D14D68DA0709D182039E
:101AF00095434D60E28F530809E0054666E00546D0
:101B000064E0820315434D60E28F5208531CE38763
:101B1000009DA26D5269B24213D14A68019B9A435B
:101B20004A607A884B684003D20704D183434B60F4
:101B30007888400804E003434B6078884008401CE4
:101B40007880A06D254A026345637B7E042B05D017
:101B5000244DC562042B05D1234B04E0204DC56202
:101B6000042BF9D0214B2646603683627B880C31EA
:101B7000029AFEF749FC1021002801D0012522E03D
:101B800022685068012528435060606D009B836285
:101B9000C36203634363E38F0291A16B0C32FEF7D0
:101BA00033FC029900280ED1009D20680168490687
:101BB00003D4016840220A430260416820220A439C
:101BC0004260061D022130680843306000203876EC
:101BD000284603B0F0BDC0460107000059220008A6
:101BE0007B220008852200088F2200085523000868
:101BF00070477047401E010E01D001207047074911
:101C0000074A5060074803680B40032189075918A9
:101C1000016000209060072111607047FFFFFF0006
:101C200010E000E020ED00E07047B0B500282FD0B4
:101C30000446C06F002805D1782000212154204699
:101C400000F028F82420E067206801680125A943F6
:101C50000160204600F034FE012817D0606A002899
:101C600002D0204600F0DEFC0920C00221684A684C
:101C700082434A6088682A2290438860086801226B
:101C800002430A60204600F037FD05462846B0BDF5
:101C90000120B0BDF0B587B00446006820498842F5
:101CA00001D007B0F0BD1F48816801260696B20436
:101CB000114381608168114001910199F10402682A
:101CC0000A43026000680840019000270497022040
:101CD000039030200290019803250595124802A92F
:101CE000FEF7E6FB2803114D80211022104B2B60DC
:101CF0006A60AF60E9602F616F61AF61E86128469B
:101D0000FEF744FB002801D0FEF7D8FA25676C6285
:101D1000B00608490A6802430A6007B0F0BDC04631
:101D20000048004014100240000800483421002000
:101D30001C00024000000140F0B581B00446C06FB5
:101D4000202813D1012500290DD01346002A0AD0DE
:101D500001263003A26882420CD1C8070AD020694C
:101D6000002807D13546284601B0F0BD0225284697
:101D700001B0F0BD274650377B8000257D633B8056
:101D8000E1642120E067206F002814D0154A8262A8
:101D9000134AC262114A0263456322682832FEF781
:101DA00033FB002807D0102078632020E0673546F9
:101DB000284601B0F0BD206840210162EFF3108099
:101DC000012181F3108821688A68802313438B6086
:101DD00080F31088284601B0F0BDC046BD2700083A
:101DE000B72800086F28000870477047FEE700001A
:101DF000F0B585B00E4604464030049020688169F5
:101E0000C90606D400210F4601258269D30545D4B1
:101E100048E01021C1618169890637D4711C32D034
:101E200015460120002E6CD186030390C70302974C
:101E3000FEF712FC206842680499897883693B4266
:101E400009D0324007D1202905D041683143416093
:101E5000FEF702FC054620688169890605D4FEF775
:101E6000FBFB401B1A28F6D377E081698906029FA5
:101E7000DED50BE08169890608D48169890605D41D
:101E80008169890602D481698906F3D52021C1615F
:101E90000127042101258269D30503D52B02C361E3
:101EA00029432F466B02560506D41A420AD1002F49
:101EB0000BD1002005B0F0BDAD02C5610825294356
:101EC0001A4202D0C361022211438269920701D5EE
:101ED000002282628269D20703D1826901231343FF
:101EE000836142688F4B13404360606C08436064B9
:101EF000202004994870002008708870012005B0E7
:101F0000F0BD810302910390C0030190019F03E0A3
:101F1000206881698906B9D4FEF79EFB401BB04258
:101F2000F6D9206842680499897883693B420BD0CE
:101F3000029B1A4008D1202906D04168029A114319
:101F40004160FEF789FB0546206880698006DFD482
:101F5000FEF782FB401B1A28F6D3206881692421F2
:101F6000039F01258269D30598D49BE7F0B583B020
:101F70001C4615460E460746036899693140891B81
:101F80004A424A410020AA4234D1611C2BD0002C85
:101F900032D10446FEF760FB386881693140891B05
:101FA0004A424A41AA4240D080693040801B4142A7
:101FB0004141A942EED0204603B0F0BD99693140BD
:101FC000891B4A424A41AA4214D199693140891B6E
:101FD0004A424A41AA420DD199693140891B4A427D
:101FE0004A41AA4206D199693140891B4A424A4175
:101FF000AA42E3D003B0F0BD01900898029006E039
:1020000080693040801B41424141A9421AD1FEF70C
:1020100023FB0299411A3868A142F1D98169314004
:10202000891B4A424A41AA42EAD138464030796C7B
:1020300020221143796442700021017081700120D7
:1020400003B0F0BD019803B0F0BD0000F0B581B061
:10205000044600688069002740073CD415460E46B8
:10206000204640300029009003D12AE080694007D3
:1020700031D4204631462A46FFF7BAFE00284DD11A
:102080002068816989062AD4FEF7E6FA411B206898
:10209000B142EBD981694907E8D4606C202108433B
:1020A0006064009A517037E020688169890616D40F
:1020B000FEF7D2FA206881694907EED580694007AA
:1020C00014D40026204631462A46FFF791FE002808
:1020D000EAD001260AE03E46304601B0F0BD8169F3
:1020E000490706D5218D00293E4602D0304601B071
:1020F000F0BD82690021D2060A4602D51022C261D3
:10210000042262642022C2614368064C1C40446081
:1021100000984270024681700020107001263046FF
:1021200001B0F0BD00E800FEF0B581B005460068E2
:1021300080690024800622D416460F46002903D168
:1021400029E0806980061AD4284639463246FFF7CE
:102150004FFE002827D1FEF77FFA811B2868B9427D
:10216000EFD981698906ECD428464030696C202279
:10217000114369644270002101708170012420467E
:1021800001B0F0BDFEF768FA286881698906EBD5D1
:1021900080698006F3D40024284621463246FFF7A2
:1021A00027FE0028EED00124204601B0F0BDF0B596
:1021B00081B00546006880690024800716D4164661
:1021C0000F46481C19D0002F26D10024284621464E
:1021D0003246FFF70DFE002838D1FEF73DFA286899
:1021E0008169890728D580698007EED5204601B02E
:1021F000F0BD286880698007F8D40024E1432846B0
:102200003246FFF7F5FD0028F3D00124204601B047
:10221000F0BD80698007E9D4284639463246FFF789
:10222000E7FD002812D1FEF717FA811B2868B94292
:10223000EFD981698907ECD428464030696C2022A7
:1022400011436964427000210170817001242046AD
:1022500001B0F0BDFEE7704780B5406A01684A688A
:1022600003239A434A60016E10220A4302665D21ED
:1022700001224254FFF7B4F880BD80B5406AFFF7F1
:102280005CFA80BD80B5406AFFF7B3FC80BDF0B555
:1022900081B00646446AFEF7DFF9009030680068B6
:1022A000800652D4206841682026B1434160A1686D
:1022B00041229700031D002907D16268BA4204D168
:1022C0004020C2433D3218460EE01A680125AA4359
:1022D0001A606268BA420AD14022D243EB039942A3
:1022E00002D0AB02994202D101681140016025463B
:1022F000463564212046009A00F026F9002804D0D3
:10230000206E30432066266613E06068B84210D124
:10231000A0680121CA03904202D08902884208D1F4
:102320000320410264222046009B00F05DF8002853
:10233000E6D1002028800120E875206E002804D016
:102340002046FFF74DF801B0F0BD2046FFF7F4F945
:1023500001B0F0BDF0B581B00646446AFEF77CF9E5
:10236000054630680068800638D426464636206820
:1023700041682027B943416003200090C1026422D4
:1023800020462B4600F030F800280FD1642120466B
:102390002A4600F0D9F8002808D1009841026422AA
:1023A00020462B4600F020F8002805D0206E384348
:1023B0002066206E3843206620684168009A914369
:1023C00041600020E08730800120F075206E0028F9
:1023D00004D02046FFF704F801B0F0BD2046FFF717
:1023E00007FC01B0F0BD0000F0B587B004931446BF
:1023F0000E46054605A800270770FEF72DF904993B
:10240000081A02940419FEF727F90490814800681D
:1024100023214143080D6043069003952D68A86869
:10242000304233D0019703214F020298401C30D034
:10243000BE4200911CD104E00398006880683842D5
:1024400045D0287B05A908700598FEF705F9049981
:10245000401AA0423ED206980699491E06910028CD
:10246000EAD10446E8E703980068806830422ED03D
:10247000FEF7F2F80499401AA0422BD2069806996A
:10248000491E06910028EED10446ECE7384607B015
:10249000F0BDBE4247D1287B05A908700598A86801
:1024A000384214D0287B05A908700598A8683842DE
:1024B0000DD0287B05A908700598A868384206D079
:1024C000287B05A908700598A8683842E3D10198CF
:1024D00007B0F0BD039C20684168E0229143416051
:1024E0004121890062688A420BD1A1680122D3038D
:1024F000994202D09202914203D101684022914355
:10250000016001214A03A36A5C34934205D1036848
:1025100093430360036813430360002020706170DD
:10252000009807B0F0BD0199A868304208D0A868AB
:10253000304205D0A868304202D0A8683042F3D1BA
:10254000084607B0F0BDC046F0B583B015460F464B
:102550000446FEF781F8281AC519FEF77DF80646ED
:102560002C4800684001000D684302902268916881
:102570000020090622D5791C1DD0019027465C3722
:1025800003E020688068000641D5FEF765F8801BEF
:10259000A84215D202980299491E02910028F0D152
:1025A0000546EEE79168090608D59168090605D544
:1025B0009168090602D591680906F3D403B0F0BD0D
:1025C00020684168E02291434160412189006268AE
:1025D0008A420BD1A1680122D303994202D0920210
:1025E000914203D1016840229143016001214A03D5
:1025F000A36A934205D103689343036003681343BE
:102600000360002038707970032003B0F0BD01989A
:1026100003B0F0BD08000020704780B5FEF77AFADD
:1026200080BD7047B0B5416ACA070CD18A0714D47F
:102630004A071CD40A0724D4CA062CD48A0634D4E8
:102640004A063CD44CE00122520403685C6894437F
:10265000826A22435A608A07EAD50122120403687B
:102660005C689443C26A22435A604A07E2D5012259
:10267000920403685C689443026B22435A600A0721
:10268000DAD50122D20303685C689443426B22438B
:102690005A60CA06D2D50122120303689C6894438B
:1026A000826B22439A608A06CAD5012252030368CC
:1026B0009C689443C26B22439A604A0610D501225B
:1026C0001305026854689C43056C2C4354609D427A
:1026D00006D103235B0554689C43436C234353603A
:1026E000090607D50121C904026853688B43806C31
:1026F00018435060B0BD0000F0B583B004460646F4
:1027000078360027F760FDF7A7FF034620680168C9
:1027100009071FD52848009001200290410500229A
:1027200020461D4600F076F9002811D0EFF3108006
:10273000029981F3108821680A6880239A430A600D
:1027400080F310882020E0670320377003B0F0BDCD
:1027500020682B460068400725D5174800900125C2
:10276000A9050022204600F055F900281BD0EFF300
:10277000108085F3108809214901226813688B4372
:10278000136080F31088EFF3108085F310882168C0
:102790008A68AA438A6080F310882020B0600320F2
:1027A000377003B0F0BD2020E067B0602766676631
:1027B0003846377003B0F0BDFFFFFF01F0B581B0C0
:1027C000406AC16F80228358024652320468A5686D
:1027D0002D0612D5212910D100211180EFF310818F
:1027E000012484F3108804682568C026B543256059
:1027F00081F310882021C167046801468031A468F4
:1028000064062CD5222B2AD100231381EFF31084E8
:10281000012282F3108809256D0106683768AF43ED
:10282000376084F31088EFF3108482F31088056812
:10283000AE689643AE6084F31088046E012C0AD112
:10284000EFF3108482F31088026815681026B543F0
:10285000156084F3108820220A60836603664A6844
:10286000102313434B60FFF7DFF901B0F0BDB0B5A3
:102870000146406A8969202902D1FFF7B5FAB0BD47
:10288000522100224252EFF31081012282F310887C
:1028900003689C688025AC439C6081F31088EFF34B
:1028A000108182F31088006802684023134303609C
:1028B00081F31088B0BD80B5406AFFF796FA80BDFD
:1028C000B0B5044600680168484A0A40A168236917
:1028D0000B4365691D431543E1690D430560032200
:1028E000120343689343E2681A434260A269236A71
:1028F00013430B221202856895431D438560002215
:102900003B4B984206DC3D4B984210D03C4B9842E2
:1029100016D014E0374B984212D0374A90420ED16D
:10292000384800688007000F374A125808E03548D9
:102930000068800B0C2202403348825800E01022CD
:102940000125EB033148994210D1082A49D8C046E5
:102950007A44127952009744044420441944444470
:102960001F00FEF7A7FA002817D113E0082A38D86D
:102970007A44127952009744043427342034343492
:102980002600FEF797FA00281ED11AE0FEF7A0FAFB
:10299000002802D1002524E01846400061684A085A
:1029A000101802F0E5FF0246103A19498A4218D27F
:1029B00001400007400F084310E0FEF789FA0028A5
:1029C00002D100250DE0184661684A08101802F08F
:1029D000CFFF014610390E4A914202D22168C860E9
:1029E00000250020A066E0662846B0BDF369FFEF31
:1029F000FF4B0040004C00400038014000440040C4
:102A000000480040301002406C5D000800127A005F
:102A1000F0FF0000F0B587B015460F460668F16973
:102A20003940C91B4A424A410021AA4225D1069396
:102A30000C9C002C24D00B46611C26D1F169394036
:102A4000C91B4A424A41AA4214D1F1693940C91B03
:102A50004A424A41AA420DD1F1693940C91B4A4252
:102A60004A41AA4206D1F1693940C91B4A424A414A
:102A7000AA42E3D0184607B0F0BD084607B0F0BD43
:102A8000FDF7EAFD032007B0F0BD0293014678315F
:102A9000039101210191C9020491059006E0C969E1
:102AA0003940CA1B51425141A9424BD1FDF7D4FDD7
:102AB0000699411A0323A142DCD8059801680A68E7
:102AC0005207ECD5CA6912073FD4CA692646049C4E
:102AD00022423446E3D01F4604980862EFF3108286
:102AE000012181F3108809235B010598046825689A
:102AF0009D43256082F31088EFF3108281F31088E4
:102B0000059803689C688C439C60059882F3108844
:102B1000026E012A0BD1EFF3108281F31088016855
:102B20000B681024A3430B60059882F310882021C2
:102B3000039B99600022026682661A70D96038464B
:102B400007B0F0BD029807B0F0BD08250D62EFF3A5
:102B50001081019880F3108809225201059B1B689F
:102B60001C6894431C6081F31088EFF3108180F39C
:102B70001088059A1268936883439360059B81F3DC
:102B80001088196E01290CD1EFF31081012282F314
:102B900010881A6813681024A3431360059B81F3FF
:102BA00010882021039A916000211966996611709E
:102BB000D56007B0F0BD000010B5254CE068254990
:102BC0000988224608321154032801D0401C00E035
:102BD0000020E06008202056012801DB072105E0E5
:102BE000002801D4002000E04042082102F076FED7
:102BF00009202056012801DB032105E0002801D42B
:102C0000002000E04042042102F068FE0A20205625
:102C1000012801DB012105E0002801D4002000E0AB
:102C20004042022102F05AFE0B202056012803DB0D
:102C3000052102F053FE10BD002804D40020062117
:102C400002F04CFE10BD4042062102F047FE10BDCE
:102C50007000002024380140F0B587B004A9087046
:102C600002A8002505700920C006102101902A46FF
:102C7000FDF7EAFC05A80580008805281BD005980B
:102C8000401C05A908800888052814D00598401C18
:102C900005A90880088805280DD00598401C05A9BD
:102CA00008800888052806D00598401C05A90880DA
:102CB00008880528E3D164260096514804A903AF8B
:102CC00001243A462346FEF739FD009602A94C48F6
:102CD0003A462346FEF732FD06A8058000880528FF
:102CE0001BD00698401C06A908800888052814D027
:102CF0000698401C06A90880088805280DD006986B
:102D0000401C06A908800888052806D00698401CA3
:102D100006A9088008880528E3D11021012201981E
:102D2000FDF792FC03A8007807B0F0BDF0B587B0BE
:102D300003AA117004A908700920C00610210025FB
:102D400001902A46FDF780FC05A80580008805282B
:102D50001BD00598401C05A908800888052814D0B8
:102D60000598401C05A90880088805280DD00598FD
:102D7000401C05A908800888052806D00598401C35
:102D800005A9088008880528E3D1642600961C4818
:102D900004A902AF01243A462346FEF7CFFC009671
:102DA00003A917483A462346FEF7C8FC06A8058043
:102DB000008805281BD00698401C06A908800888B2
:102DC000052814D00698401C06A908800888052804
:102DD0000DD00698401C06A908800888052806D052
:102DE0000698401C06A9088008880528E3D1102110
:102DF000012401982246FDF727FC204607B0F0BDCC
:102E00007821002000B5BDB0FDF78EFE2EAD281D47
:102E100030273946FDF7E0F900243794102032902E
:102E20000126319602202E902994289427942694E6
:102E3000259424942846FEF77FF8002803D0EFF36A
:102E4000108072B6FEE71D9709962D942C942B9452
:102E500007272A972AA82146FDF776FF002803D0E6
:102E6000EFF3108072B6FEE727942025239523A860
:102E7000FDF7C6FE002803D0EFF3108072B6FEE720
:102E80001C95099AD0044C4B1968014319601968C4
:102E900001402E912E989004196801431960196819
:102EA00001402E912E985004196801431960196849
:102EB00001402E912E981868104318601868104031
:102EC0002E902E980A25284621462246FDF77CFEA4
:102ED0001E952846FDF76CFE0B26304621462246FD
:102EE000FDF772FE3046FDF763FE34480C214B229D
:102EF0001892D201324D2B461C3B03604260846025
:102F0000C460046141618461C46104624462FEF78B
:102F10008CFE002803D0EFF3108072B6FEE7139604
:102F200028480821046244628462C76204630C91E9
:102F300041631821244A3B024126B70084C0FC3774
:102F4000046043608460C460076141610838FEF733
:102F500049FA002803D0EFF3108072B6FEE71F96FF
:102F60001A4F1B481B49F96138627C620998B862A4
:102F7000FC623C637C63BC63FC631C373846FDF732
:102F8000B3FB002803D0EFF3108072B6FEE70021F8
:102F90003846FDF767FB002803D0EFF3108072B6C8
:102FA000FEE700213846FDF77EFB002814D0EFF342
:102FB000108072B6FEE7C04614100240DC210020EB
:102FC0001C4800407821002000380040700000209C
:102FD0000E09002000540040CDA12EAE324618C983
:102FE00018C219C919C20920C406209420463146C6
:102FF000FDF75EFA102120460891099C2246FDF754
:1030000023FB02F097F9A003C64A516801435160BF
:10301000516801402E912E98FDF748FFC24909687A
:1030200002F0A6FCC149C86008682D2202430A606C
:10303000BFA02EA90A4618C818C258C858C220985E
:10304000FDF736FA0998C006BE490860FF200B90CC
:103050000006BD490A6882430320069080071018C5
:1030600008602868000608D42868000605D4286887
:10307000000602D428680006F3D514971F9BAB8185
:103080001E99189A2868000608D42868000605D4F6
:103090002868000602D428680006F3D54327AF81CC
:1030A0002868000608D42868000605D428680006A9
:1030B00002D428680006F3D5AA812868000608D43F
:1030C0002868000605D42868000602D4286800068F
:1030D000F3D51C98A8812868000608D42868000643
:1030E00005D42868000602D428680006F3D5AF810D
:1030F0002868000608D42868000605D42868000659
:1031000002D428680006F3D54D201690A8812868BF
:10311000000608D42868000605D42868000602D4F2
:1031200028680006F3D544201990A8812868000675
:1031300008D42868000605D42868000602D4286848
:103140000006F3D51C98A8812868000608D42868D2
:10315000000605D42868000602D428680006F3D5C6
:10316000AB812868000608D42868000605D42868C2
:10317000000602D428680006F3D572201190A881B9
:103180002868000608D42868000605D428680006C8
:1031900002D428680006F3D564202190A88128680D
:1031A000000608D42868000605D42868000602D462
:1031B00028680006F3D575200F90A88128680006BE
:1031C00008D42868000605D42868000602D42868B8
:1031D0000006F3D5AF812868000608D428680006E9
:1031E00005D42868000602D428680006F3D5AB8110
:1031F0002868000608D42868000605D42868000658
:1032000002D428680006F3D51698A881286800061D
:1032100008D42868000605D42868000602D4286867
:103220000006F3D51C98A8812868000608D42868F1
:10323000000605D42868000602D428680006F3D5E5
:1032400053201B90A8812868000608D4286800062F
:1032500005D42868000602D428680006F3D5742037
:103260001790A8812868000608D42868000605D4AD
:103270002868000602D428680006F3D56126AE81CE
:103280002868000608D42868000605D428680006C7
:1032900002D428680006F3D51198A8812868000692
:1032A00008D42868000605D42868000602D42868D7
:1032B0000006F3D51798A8812868000608D4286866
:1032C000000605D42868000602D428680006F3D555
:1032D00021201090A8812868000608D428680006DC
:1032E00005D42868000602D428680006F3D5A98111
:1032F0002868000608D42868000605D42868000657
:1033000002D428680006F3D50D201590A88122E08C
:103310001000000001000000030000000000000099
:1033200000000000141002400C0000200038014092
:103330000004000002000000000000000000000087
:103340000100000000E100E018E400E01598A88109
:10335000552C00D137E3802055210A90FFF7E6FC79
:1033600000202290FFF778FC0446552800D076E133
:103370002868000608D42868000605D428680006D6
:1033800002D428680006F3D51F98A881189A2868E7
:10339000000608D42868000605D42868000602D470
:1033A00028680006F3D5AF812868000608D428688D
:1033B000000605D42868000602D428680006F3D564
:1033C000AA812868000608D42868000605D4286861
:1033D000000602D428680006F3D51C98A881286846
:1033E000000608D42868000605D42868000602D420
:1033F00028680006F3D5AF812868000608D428683D
:10340000000605D42868000602D428680006F3D513
:103410001698A8812868000608D42868000605D4F4
:103420002868000602D428680006F3D51998A881F8
:103430002868000608D42868000605D42868000615
:1034400002D428680006F3D51C98A88128680006D5
:1034500008D42868000605D42868000602D4286825
:103460000006F3D51B98A8812868000608D42868B0
:10347000000605D42868000602D428680006F3D5A3
:103480005020A8812868000608D42868000605D4C2
:103490002868000602D428680006F3D54920A881D0
:1034A0002868000608D42868000605D428680006A5
:1034B00002D428680006F3D51C98A8812868000665
:1034C00008D42868000605D42868000602D42868B5
:1034D0000006F3D56920A8812868000608D428686A
:1034E000000605D42868000602D428680006F3D533
:1034F0006E20A8812868000608D42868000605D434
:103500002868000602D428680006F3D51798A88119
:103510002868000608D42868000605D42868000634
:1035200002D428680006F3D56520A8812968090619
:1035300008D42968090605D42968090602D429682F
:103540000906F3D51199A9812968090608D42968C3
:10355000090605D42968090602D429680906F3D5A5
:103560006621A9812968090608D42968090605D4B5
:103570002968090602D429680906F3D5AE812968AD
:10358000090608D42968090605D42968090602D461
:1035900029680906F3D56321A9812968090608D499
:1035A0002968090605D42968090602D4296809068C
:1035B000F3D5A8812868000608D42868000605D439
:1035C0002868000602D428680006F3D51C98A88154
:1035D0002868000608D42868000605D42868000674
:1035E00002D428680006F3D54F20A8812868000679
:1035F00008D42868000605D42868000602D4286884
:103600000006F3D5AA812868000608D428680006B9
:1036100005D42868000602D428680006F3D510985F
:10362000A8812868000608D42868000605D4286800
:10363000000602D428680006F3D51E98A8812868E1
:10364000000600D582E62868000600D57EE62868D8
:10365000000600D57AE628680006F0D576E62868E8
:10366000000608D42868000605D42868000602D49D
:1036700028680006F3D51F98A881189928680006C5
:1036800008D42868000605D42868000602D42868F3
:103690000006F3D5AF812868000608D42868000624
:1036A00005D42868000602D428680006F3D5A9814D
:1036B0002868000608D42868000605D42868000693
:1036C00002D428680006F3D51C98A8812868000653
:1036D00008D42868000605D42868000602D42868A3
:1036E0000006F3D5AF812868000608D428680006D4
:1036F00005D42868000602D428680006F3D5169879
:10370000A8812868000608D42868000605D428681F
:10371000000602D428680006F3D51998A881286805
:10372000000608D42868000605D42868000602D4DC
:1037300028680006F3D51C98A8812868000608D4DC
:103740002868000605D42868000602D42868000608
:10375000F3D51B98A8812868000608D428680006BD
:1037600005D42868000602D428680006F3D5502046
:10377000A8812868000608D42868000605D42868AF
:10378000000602D428680006F3D54920A8812868DD
:10379000000608D42868000605D42868000602D46C
:1037A00028680006F3D51C98A8812868000608D46C
:1037B0002868000605D42868000602D42868000698
:1037C000F3D56920A8812868000608D42868000677
:1037D00005D42868000602D428680006F3D56E20B8
:1037E000A8812868000608D42868000605D428683F
:1037F000000602D428680006F3D51798A881286827
:10380000000608D42868000605D42868000602D4FB
:1038100028680006F3D56520A8812968090608D420
:103820002968090605D42968090602D42968090609
:10383000F3D51199A9812968090608D429680906D0
:1038400005D42968090602D429680906F3D566213A
:10385000A9812968090608D42968090605D42968B8
:10386000090602D429680906F3D5AE81296809063C
:1038700008D42968090605D42968090602D42968EC
:103880000906F3D56321A9812968090608D42968A6
:10389000090605D42968090602D429680906F3D562
:1038A000A8812868000608D42868000605D428687E
:1038B000000602D428680006F3D51C98A881286861
:1038C000000608D42868000605D42868000602D43B
:1038D00028680006F3D54520A8812868000608D48A
:1038E0002868000605D42868000602D42868000667
:1038F000F3D51198A8812868000608D42868000626
:1039000005D42868000602D428680006F3D511986B
:10391000A8812868000608D42868000605D428680D
:10392000000602D428680006F3D56F20A881286815
:10393000000608D42868000605D42868000602D4CA
:1039400028680006F3D51198A8812868000608D4D5
:103950002868000605D42868000602D428680006F6
:10396000F3D51098A8812868000608D428680006B6
:1039700005D42868000602D428680006F3D51E98EE
:10398000A8812868000608D42868000605D428689D
:10399000000602D428680006F3D51598A881286887
:1039A000000608D42868000605D42868000602D45A
:1039B00028680006F3D5AC817D20C000FCF766FDC9
:1039C000552C00D0C7E4149E01E01598A88123AAC5
:1039D000099850700B9810702198009060211B91ED
:1039E00002240D9430462346FCF796FF23AA1E9826
:1039F00010702198009030461B992346FCF78CFFED
:103A0000219C0094612112912AAA0E923046099BB2
:103A1000FCF7BEFE23AA13981070009430461B9941
:103A20000D9BFCF779FF00943CAA30461299099B44
:103A3000FCF7AEFE0E980078262800D1E7E1286852
:103A4000000608D42868000605D42868000602D4B9
:103A500028680006F3D51F98A881189928680006E1
:103A600008D42868000605D42868000602D428680F
:103A70000006F3D5AF811E9A2868000608D428688E
:103A8000000605D42868000602D428680006F3D58D
:103A9000A9812868000608D42868000605D428688B
:103AA000000602D428680006F3D51C98A88128686F
:103AB000000608D42868000605D42868000602D449
:103AC00028680006F3D5AF812868000608D4286866
:103AD000000605D42868000602D428680006F3D53D
:103AE0001698A8812868000608D42868000605D41E
:103AF0002868000602D428680006F3D51998A88122
:103B00002868000608D42868000605D4286800063E
:103B100002D428680006F3D51C98A88128680006FE
:103B200008D42868000605D42868000602D428684E
:103B30000006F3D5AF812868000608D4286800067F
:103B400005D42868000602D428680006F3D5129828
:103B5000A8812868000608D42868000605D42868CB
:103B6000000602D428680006F3D56E20A8812968D3
:103B7000090608D42968090605D42968090602D46B
:103B800029680906F3D52721A9812968090608D4DF
:103B90002968090605D42968090602D42968090696
:103BA000F3D51799A9812968090608D42968090657
:103BB00005D42968090602D429680906F3D51C9999
:103BC000A9812968090608D42968090605D4296845
:103BD000090602D429680906F3D56621A981296856
:103BE000090608D42968090605D42968090602D4FB
:103BF00029680906F3D56921A9812968090608D42D
:103C00002968090605D42968090602D42968090625
:103C1000F3D5A8812868000608D42868000605D4D2
:103C20002868000602D428680006F3D52198A881E8
:103C30002868000608D42868000605D4286800060D
:103C400002D428680006F3D51C98A88128680006CD
:103C500008D42868000605D42868000602D428681D
:103C60000006F3D54F20A8812868000608D42868EC
:103C7000000605D42868000602D428680006F3D59B
:103C80005620A8812868000608D42868000605D4B4
:103C90002868000602D428680006F3D53220A881DF
:103CA0002868000608D42868000605D4286800069D
:103CB00002D428680006F3D53620A88128680006BB
:103CC00008D42868000605D42868000602D42868AD
:103CD0000006F3D53420A8812868000608D4286897
:103CE000000605D42868000602D428680006F3D52B
:103CF0001D98A8812868000608D42868000605D405
:103D00002868000602D428680006F3D51C98A8810C
:103D10002868000608D42868000605D4286800062C
:103D200002D428680006F3D56D20A8812868000613
:103D300008D42868000605D42868000602D428683C
:103D40000006F3D56F20A8812868000608D42868EB
:103D5000000605D42868000602D428680006F3D5BA
:103D60002198A8812868000608D42868000605D490
:103D70002868000602D428680006F3D50F98A881A9
:103D80002868000608D42868000605D428680006BC
:103D900002D428680006F3D56C20A88128680006A4
:103DA00008D42868000605D42868000602D42868CC
:103DB0000006F3D56520A8812868000608D4286885
:103DC000000605D42868000602D428680006F3D54A
:103DD0001098A8812868000608D42868000605D431
:103DE0002868000602D428680006F3D5AA8128684E
:103DF000000600D5E9E52868000600D5E5E5286855
:103E0000000600D5E1E528680006F0D5DDE5189A42
:103E10001F992868000608D42868000605D4286879
:103E2000000602D428680006F3D5A9811E992868E7
:103E3000000608D42868000605D42868000602D4C5
:103E400028680006F3D5AF812868000608D42868E2
:103E5000000605D42868000602D428680006F3D5B9
:103E6000AA812868000608D42868000605D42868B6
:103E7000000602D428680006F3D51C98A88128689B
:103E8000000608D42868000605D42868000602D475
:103E900028680006F3D5AF812868000608D4286892
:103EA000000605D42868000602D428680006F3D569
:103EB0001698A8812868000608D42868000605D44A
:103EC0002868000602D428680006F3D51998A8814E
:103ED0002868000608D42868000605D4286800066B
:103EE00002D428680006F3D51C98A881286800062B
:103EF00008D42868000605D42868000602D428687B
:103F00000006F3D54F20A8812868000608D4286849
:103F1000000605D42868000602D428680006F3D5F8
:103F20005620A8812868000608D42868000605D411
:103F30002868000602D428680006F3D53220A8813C
:103F40002868000608D42868000605D428680006FA
:103F500002D428680006F3D53620A8812868000618
:103F600008D42868000605D42868000602D428680A
:103F70000006F3D53420A8812868000608D42868F4
:103F8000000605D42868000602D428680006F3D588
:103F90001D98A8812868000608D42868000605D462
:103FA0002868000602D428680006F3D51C98A8816A
:103FB0002868000608D42868000605D4286800068A
:103FC00002D428680006F3D52198A8812868000645
:103FD00008D42868000605D42868000602D428689A
:103FE0000006F3D565201B90A8812868000608D438
:103FF0002868000605D42868000602D42868000650
:10400000F3D51798A8812868000608D42868000608
:1040100005D42868000602D428680006F3D51B984A
:10402000A8812868000608D42868000605D42868F6
:10403000000602D428680006F3D563200E90A881FC
:104040002868000608D42868000605D428680006F9
:1040500002D428680006F3D51798A88128680006BE
:1040600008D42868000605D42868000602D4286809
:104070000006F3D51B98A8812868000608D4286894
:10408000000605D42868000602D428680006F3D587
:104090002198A8812868000608D42868000605D45D
:1040A0002868000602D428680006F3D52E20079061
:1040B000A8812868000608D42868000605D4286866
:1040C000000602D428680006F3D5A98128680006F6
:1040D00008D42868000605D42868000602D4286899
:1040E0000006F3D51598A88123AA099850700B985B
:1040F0001070219E00966021139102201D90149C47
:1041000020461D9BFCF708FC23AA0A985070122039
:1041100010700096204613991D9BFCF7FDFB9B4CED
:1041200020781D90667823AA567010702198009010
:10413000602102231498FCF7EFFB1D980640F0B2B3
:10414000A41CFF28ECD123AC2298607006460B9883
:104150002070219800906021139102230D931498F0
:104160002246FCF7D9FB667005202070219E009640
:104170001498139922460D9BFCF7CEFB08986070AB
:10418000DA200590207000961498139E314622463E
:104190000D9BFCF7C1FB06986070D720049020703F
:1041A000219800901498314622460D9BFCF7B4FBF1
:1041B00022986070DF20207021980090149E304675
:1041C000139922460D9BFCF7A7FB0A9860703320D9
:1041D0002070219800903046139922460D9E334658
:1041E000FCF79AFB402060703C201D9020702198C5
:1041F00000901498139922463346FCF78DFB7720E4
:1042000003906070E12002902070219E0096149827
:10421000139922460D9BFCF77FFB2298607020705B
:104220000096149E3046139922460D9BFCF774FBB2
:104230000B986070207021980090304613992246A8
:104240000D9E3346FCF768FB23AC14206070E02021
:104250000A902070219800901498139922463346B2
:10426000FCF75AFB03986070029820702198009028
:104270001498139922463346FCF74EFB1F206070BA
:10428000E520207021980090149E30461399224614
:104290000D9BFCF741FB06986070049820702198F4
:1042A00000903046139922460D9BFCF735FB089889
:1042B000607005982070219E0096149813992246EC
:1042C0000D9BFCF729FB229860700A9820700096DD
:1042D0001498139922460D9BFCF71EFB09986070F9
:1042E0000B98207000961498139922460D9E334621
:1042F000FCF712FB0C98607004202070219800904D
:104300001498139922463346FCF706FB0B9860700D
:104310002070219800901498139E314622460D9CDF
:104320002346FCF7F9FA23AA099850700B981070ED
:1043300021980090149831462346FCF7EDFA23AA01
:1043400022985070152010702198009014983146D2
:104350002346FCF7E1FA0E4C20781390667823AAE6
:1043600056701070219800906021022314980893D1
:10437000FCF7D2FA13980640F0B2A41CFF28EBD148
:104380001E9B1F99209C1A9706E0C046CE5B000832
:104390007E5B00081598A8812868000608D4286864
:1043A000000605D42868000602D428680006F3D564
:1043B000A9812868000608D42868000605D4286862
:1043C000000602D428680006F3D5AF8128680006ED
:1043D00008D42868000605D42868000602D4286896
:1043E0000006F3D51898A8812868000608D4286824
:1043F000000605D42868000602D428680006F3D514
:104400001C98A8812868000608D42868000605D4EE
:104410002868000602D428680006F3D5AF81286812
:10442000000608D42868000605D42868000602D4CF
:1044300028680006F3D51698A8812868000608D4D5
:104440002868000605D42868000602D428680006FB
:10445000F3D51998A8812868000608D428680006B2
:1044600005D42868000602D428680006F3D51C98F5
:10447000A8812868000608D42868000605D42868A2
:10448000000602D428680006F3D542200C90A881CB
:104490002868000608D42868000605D428680006A5
:1044A00002D428680006F3D51B98A8812868000666
:1044B00008D42868000605D42868000602D42868B5
:1044C0000006F3D56720A8812968090608D4296861
:1044D000090605D42968090602D429680906F3D516
:1044E0006921A9812A68120608D42A68120605D40F
:1044F0002A68120602D42A681206F3D56E26AE8107
:104500002A68120608D42A68120605D42A681206F8
:1045100002D42A681206F3D5AE812A68120608D49E
:104520002A68120605D42A68120602D42A681206DE
:10453000F3D5A9812A68120608D42A68120605D480
:104540002A68120602D42A681206F3D5AE812A68B8
:10455000120608D42A68120605D42A68120602D464
:104560002A681206F3D5A8812A68120608D42A6898
:10457000120605D42A68120602D42A681206F3D558
:104580001C9AAA812A68120608D42A68120605D441
:104590002A68120602D42A681206F3D57322AA8169
:1045A0002A68120608D42A68120605D42A68120658
:1045B00002D42A681206F3D5A9812968090608D40D
:1045C0002968090605D42968090602D4296809065C
:1045D000F3D5AE812968090608D42968090605D4EF
:1045E0002968090602D429680906F3D5A881286834
:1045F000000608D42868000605D42868000602D4FE
:1046000028680006F3D56C200D90A8812868000664
:1046100008D42868000605D42868000602D4286853
:104620000006F3D51B98A8812868000608D42868DE
:10463000000605D42868000602D428680006F3D5D1
:104640001C98A8812868000608D42868000605D4AC
:104650002868000602D428680006F3D50E98A881C1
:104660002868000608D42868000605D428680006D3
:1046700002D428680006F3D51298A881286800069D
:1046800008D42868000605D42868000602D42868E3
:104690000006F3D570201490A8812868000608D47D
:1046A0002868000605D42868000602D42868000699
:1046B000F3D51798A8812868000608D42868000652
:1046C00005D42868000602D428680006F3D50F98A0
:1046D000A8812868000608D42868000605D4286840
:1046E000000602D428680006F3D51198A88128682E
:1046F000000608D42868000605D42868000602D4FD
:1047000028680006F3D51B98A8812868000608D4FD
:104710002868000605D42868000602D42868000628
:10472000F3D50798A8812868000608D428680006F1
:1047300005D42868000602D428680006F3D5AB81AA
:104740002868000608D42868000605D428680006F2
:1047500002D428680006F3D50B961598A8812AA8DC
:104760008421139101703CA8099901701021204601
:10477000229C2246FBF768FF23A8048000880528B6
:104780001BD02398401C23A908800888052814D032
:104790002398401C23A90880088805280DD0239859
:1047A000401C23A908800888052806D02398401CAF
:1047B00023A9088008880528E3D1219F00972AA90A
:1047C0003BAE0124B848054632462346FCF7B6FF07
:1047D00000973CA9284632462346FCF7AFFF23A8A2
:1047E00022990180008805281BD02398401C23A90A
:1047F00008800888052814D02398401C23A9088025
:10480000088805280DD02398401C23A90880088813
:10481000052806D02398401C23A90880088805286D
:10482000E3D11026209F384631462246FBF70CFF85
:104830002AA8139901703CA8047038463146229C7E
:104840002246FBF701FF23A80480008805281BD01F
:104850002398401C23A908800888052814D0239891
:10486000401C23A90880088805280DD02398401CE7
:1048700023A908800888052806D02398401C23A96E
:10488000088008880528E3D1219F00972AA93BAC1E
:1048900001268548054622463346FCF74FFF009720
:1048A0003CA9284622463346FCF748FF23A8229F0E
:1048B0000780008805281BD02398401C23A9088066
:1048C0000888052814D02398401C23A9088008884C
:1048D00005280DD02398401C23A9088008880528A6
:1048E00006D02398401C23A9088008880528E3D116
:1048F00010240122209E30462146FBF7A5FE2AA85F
:10490000139901703CA808990170304621463A4637
:10491000FBF79AFE23A80780008805281BD0239860
:10492000401C23A908800888052814D02398401C1F
:1049300023A90880088805280DD02398401C23A9A6
:1049400008800888052806D02398401C23A90880E1
:1049500008880528E3D1219F00972AA93BAC0126AE
:10496000514D284622463346FCF7E8FE00973CA905
:10497000284622463346FCF7E1FE23A8229E068005
:10498000008805281BD02398401C23A9088008888C
:10499000052814D02398401C23A9088008880528DE
:1049A0000DD02398401C23A908800888052806D02C
:1049B0002398401C23A9088008880528E3D11021EA
:1049C0000122209C2046FBF73FFE1F9A0CE010219D
:1049D0000122209C2046FBF737FE3CA80078000708
:1049E0001E991F9A314B63D42AA802703BA8067007
:1049F000102120463246FBF727FE23A806800088B8
:104A000005281BD02398401C23A908800888052866
:104A100014D02398401C23A90880088805280DD0AD
:104A20002398401C23A908800888052806D02398CD
:104A3000401C23A9088008880528E3D1219F0097FE
:104A40002AA93CAC0126184D284622463346FCF7DD
:104A500075FE00973BA9284622463346FCF76EFEBA
:104A600023A8229E068000880528B0D02398401CE9
:104A700023A9088008880528A9D02398401C23A9C9
:104A8000088008880528A2D02398401C23A9088004
:104A9000088805289BD02398401C23A908800888F3
:104AA0000528E3D193E7C046782100201C48004048
:104AB0001868000608D41868000605D418680006AF
:104AC00002D418680006F3D59A81189A186800066F
:104AD00008D41868000605D41868000602D41868BF
:104AE0000006F3D51A9898811868000608D418684B
:104AF000000605D41868000602D418680006F3D52D
:104B00009A811868000608D41868000605D4186849
:104B1000000602D418680006F3D51C98988118681E
:104B2000000608D41868000605D41868000602D4E8
:104B300018680006F3D51A9898811868000608D4FA
:104B40001868000605D41868000602D41868000624
:104B5000F3D5169898811868000608D418680006DE
:104B600005D41868000602D418680006F3D5199811
:104B700098811868000608D41868000605D41868DB
:104B8000000602D418680006F3D51C9898811868AE
:104B9000000608D41868000605D41868000602D478
:104BA00018680006F3D51A9898811868000608D48A
:104BB0001868000605D41868000602D418680006B4
:104BC000F3D5129898811868000608D41868000672
:104BD00005D41868000602D418680006F3D51498A6
:104BE00098811868000608D41868000605D418686B
:104BF000000602D418680006F3D517989881186843
:104C0000000608D41868000605D41868000602D407
:104C100018680006F3D50F9898811868000608D424
:104C20001868000605D41868000602D41868000643
:104C3000F3D5119898811868000608D41868000602
:104C400005D41868000602D418680006F3D51B982E
:104C500098811868000608D41868000605D41868FA
:104C6000000602D418680006F3D51C9898811868CD
:104C7000000608D41868000605D41868000602D497
:104C800018680006F3D5219898811868000608D4A2
:104C90001868000605D41868000602D418680006D3
:104CA000F3D56F20139098811868000608D418680F
:104CB000000605D41868000602D418680006F3D56B
:104CC0000B9898811868000608D41868000605D467
:104CD0001868000602D418680006F3D51B9898815E
:104CE0001868000608D41868000605D4186800067D
:104CF00002D418680006F3D5109898811868000649
:104D000008D41868000605D41868000602D418688C
:104D10000006F3D599811868000608D418680006C3
:104D200005D41868000602D418680006F3D5159853
:104D300098812AA80C9901703BA806701021204682
:104D40003246FBF781FC23A80680008805281BD08B
:104D50002398401C23A908800888052814D023988C
:104D6000401C23A90880088805280DD02398401CE2
:104D700023A908800888052806D02398401C23A969
:104D8000088008880528E3D1219F00972AA93CAC18
:104D90000126C14D284622463346FCF7CFFC00973A
:104DA0003BA9284622463346FCF7C8FC23A8229F8D
:104DB0000780008805281BD02398401C23A9088061
:104DC0000888052814D02398401C23A90880088847
:104DD00005280DD02398401C23A9088008880528A1
:104DE00006D02398401C23A9088008880528E3D111
:104DF00010240122209E30462146FBF725FC3CA8CA
:104E000000780C902AA81A9901703BA807703046C8
:104E100021463A46FBF718FC23A80780008805289E
:104E20001BD02398401C23A908800888052814D08B
:104E30002398401C23A90880088805280DD02398B2
:104E4000401C23A908800888052806D02398401C08
:104E500023A9088008880528E3D1219F00972AA963
:104E60003CAC01268C4D284622463346FCF766FCB6
:104E700000973BA9284622463346FCF75FFC23A84F
:104E800022990180008805281BD02398401C23A963
:104E900008800888052814D02398401C23A908807E
:104EA000088805280DD02398401C23A9088008886D
:104EB000052806D02398401C23A9088008880528C7
:104EC000E3D110240122209E30462146FBF7BCFB93
:104ED0003CA800780B902AA8199901703BA8229F42
:104EE0000770304621463A46FBF7AEFB23A8078001
:104EF000008805281BD02398401C23A90880088817
:104F0000052814D02398401C23A908800888052868
:104F10000DD02398401C23A908800888052806D0B6
:104F20002398401C23A9088008880528E3D1219FE5
:104F300000972AA93CAC0126F94D28462246334663
:104F4000FCF7FCFB00973BA9284622463346FCF7BA
:104F5000F5FB23A822990180008805281BD02398FF
:104F6000401C23A908800888052814D02398401CD9
:104F700023A90880088805280DD02398401C23A960
:104F800008800888052806D02398401C23A908809B
:104F900008880528E3D110240122209D28462146B7
:104FA0000A92FBF751FBDF4EDF4870600B9800025E
:104FB0003C994906490A08180C9940187061229FCB
:104FC000B761DA49884200DBD8483061284621467B
:104FD0003A46FBF739FB23A91D9808702AAA1770D7
:104FE00021980090CE4C20460A9D2B46FCF7A6FB4C
:104FF000328A2046CC49FCF7F9FA374618E0386186
:105000007E6810212098229C2246FBF71DFB23A9D5
:105010001D9808702AAA1470219800900123C04C92
:105020002046FCF78BFB3A8A20463146FCF7DEFA35
:10503000BF4C7878002805D1387800282ED17878B0
:105040000028F9D0229878703869B9690918B961CF
:105050007A69914209DBBD70796882B2AE48FCF78B
:105060006BFE78780028EDD1E6E77A68AE4B9A427D
:10507000214600D0194679609A42214600D1114656
:1050800082B2A548FCF758FE7869B969401AA74969
:105090008842B4DBA548B2E7782100202298387016
:1050A0009E4D2868000608D42868000605D42868A4
:1050B000000602D428680006F3D51F99A9811E9B1B
:1050C000209C1A9F2868000608D42868000605D48A
:1050D0002868000602D428680006F3D5AF81286846
:1050E000000608D42868000605D42868000602D403
:1050F00028680006F3D51898A8812868000608D407
:105100002868000605D42868000602D4286800062E
:10511000F3D51C98A8812868000608D428680006E2
:1051200005D42868000602D428680006F3D5AF81AC
:105130002868000608D42868000605D428680006F8
:1051400002D428680006F3D51698A88128680006BE
:1051500008D42868000605D42868000602D4286808
:105160000006F3D51998A8812868000608D4286895
:10517000000605D42868000602D428680006F3D586
:105180001C98A8812868000608D42868000605D461
:105190002868000602D428680006F3D55420A881A8
:1051A0002868000608D42868000605D42868000688
:1051B00002D428680006F3D57820A8812868000664
:1051C00008D42868000605D42868000602D4286898
:1051D0000006F3D51C98A8812868000608D4286822
:1051E000000605D42868000602D428680006F3D516
:1051F0000E98A8812868000608D42868000605D4FF
:105200002868000602D428680006F3D51398A88100
:105210002868000608D42868000605D42868000617
:1052200002D428680006F3D56D20A88128680006FE
:1052300008D42868000605D42868000602D4286827
:105240000006F3D51498A8812868000608D42868B9
:10525000000605D42868000602D428680006F3D5A5
:105260000D98A8812868000608D42868000605D48F
:105270002868000602D428680006F3D51B98A88188
:105280002868000608D42868000605D428680006A7
:1052900002D428680006F3D51798A881286800066C
:1052A00008D42868000605D42868000602D42868B7
:1052B0000006F3D51B98A8812868000608D4286842
:1052C000000605D42868000602D428680006F3D535
:1052D0001098A8812868000608D42868000605D41C
:1052E0002868000602D428680006F3D5AB81286838
:1052F000000601D5FFF74EF82868000601D5FFF734
:1053000049F82868000601D5FFF744F82868000628
:10531000EDD5FFF73FF8C046DC2100201C480040D7
:105320007821002070000020E0000020E50F000040
:10533000C510002080B500F001F880BDF0B590B038
:105340000125EA040392FD49086810430860886853
:1053500002221043174608928860F948132303611C
:10536000F84C643C44616E0402960A6832430A6059
:10537000AA040E6816430E608A682A438A60F24ABD
:10538000136154610168F14B19401E4601600168C8
:10539000EF4B19400160FB430D9301681940016018
:1053A000EB430F93016819400160016840230993A2
:1053B00019430160016820230B93194301601021F8
:1053C0000791CF43016839400160AC030168214374
:1053D000059401606B030C93016819430160016837
:1053E000DC4B19400160016808230E9319430160EA
:1053F000E90203680B430491036043683340436050
:105400004368D34E3340436043680D9E334043604E
:1054100043680F9E334043604368099E33434360B3
:1054200043680B9E3343436043683B40436043689B
:105430002343436043680C9C234343604368C54C4B
:105440002340436043680E9C2343436043680B43FF
:10545000436083682B4383608368079C2343836096
:105460002902019183680B438360290300910A9507
:1054700086680E438660B349C16101624162816200
:10548000183806682E4306601068B049084010605E
:105490001068AF490840106010680D9E30401060E1
:1054A00010680F99084010601068099B184310603D
:1054B00010680B9C20431060106838403D460697EA
:1054C0001060106805990843106010680C99084333
:1054D00010601068F54F3840106010680E9F384318
:1054E00010601068049F384310605068ED4F3840DA
:1054F00050605068EC4F3840506050683040506009
:1055000050680F9E3040506050681843506050689B
:10551000204350605068284050605068059B1843F5
:1055200050605068084350605068E049084050603F
:1055300050680E99084350605068049908435060C1
:1055400090680A9D2843906090680799084390608E
:1055500090680199084390609068009908439060B2
:10556000CF48D061106250629062183A10682843A8
:105570002B461060CE4D284624380168CD4C214082
:1055800001605E05016831430160294620390A68DF
:10559000C94B1A400A602B461C3B1A6822401A600D
:1055A0002A46183A17682740176014683443146075
:1055B0000668C24C264006600A9DEE050768374320
:1055C00007600868BE4D28400860186820401860D1
:1055D000106820401060106830431060B94B1C46C2
:1055E000203C20680F9D28402060206808990843CF
:1055F00020601F461C3F3868284038601A46183A19
:105600001068284010601846143803682B40036067
:1056100003680B4303600423DD4323682B402360AE
:1056200023680E9E334323603B680D990B403B601B
:1056300013682B40136003682B40079503600368D1
:1056400033430360236806990B40236023680B9E55
:10565000334323603B682B403B6013680B4013606F
:1056600003680B4003600368334303600999CE432A
:1056700023683340236021688023194321600E99F9
:10568000CC430E9439682140396011683140116073
:1056900001683140099601600168194301608A4F31
:1056A000386882490840386038680C9A104338607E
:1056B000786830407860B8680840B860F86808409A
:1056C000F860F8681043F8603868804908400C4674
:1056D00038600A9EF103386808433860DD437A6811
:1056E0002A4005957A60BA682240BA60FA6822407A
:1056F000FA60FA680A43FA603A6875490A403A6003
:105700003A68029B1A433A607A68674C22407A6092
:10571000BA680A40BA60FA680A40FA60F9689943C0
:10572000F9603A686B490A403A603A68039B1A4349
:105730003A607A685B4C22407A600DE014100240B7
:10574000180400404C04000018000040FFFDFFFF5B
:10575000FFFEFFFFFFEFFFFFBA680A40BA60FA687A
:105760000A40FA60F9689943F960F1063A6A8A4397
:105770003A62B1063A6A8A433A6271063A6A8A43E1
:105780003A6231063A6A8A433A62F1073A6A8A43D0
:105790003A62B1073A6A8A433A6271073A6A8A43BF
:1057A0003A6231073A6A8A433A62796A0E9801404E
:1057B0007962796A079C21407962796A0D9A114071
:1057C0007962796A0F9A11407962796A294079621F
:1057D000796A099B19407962796A0B9B99437962CE
:1057E000796A069E31407962364D29680140296008
:1057F0002968214029602968089C2143296029687B
:105800001140296029680598014029602868099994
:1058100008402860286818432860286830402860BD
:1058200028682749084028602868234908402860DC
:105830000A98400229680143296029681A4F3940B3
:1058400029602A6824490A402A602A681F4E32408B
:105850002A602A680C990A432A602A68134B1A4066
:105860002A60134C2268164D2A4022602268124D8D
:105870002A4022602268024322602068384020606B
:105880002068154A10402060206830402060206861
:105890000843206020681840206010B0F0BDC0466A
:1058A0004C040000FFFDFFFFFFFEFFFFFFEFFFFFC7
:1058B00024040048FFFFEFFFFFFBFFFFFFFFBFFFD8
:1058C000FFF7FFFF2000004800080048FFBFFFFF70
:1058D000FFFFFEFFFFFFFBFFFF7FFFFF10B5642808
:1058E00041D8491E07293ED87944097949008F4497
:1058F00003050709131D27311C4C0EE01B4C16E055
:105900001A4C1EE0194C0021216121684843642192
:1059100000F02EF8606110BD134C0021E160216899
:105920004843642100F024F8A06010BD0E4C002113
:10593000A16021684843642100F01AF8E06010BDBE
:10594000094C0021616121684843642100F010F88E
:10595000206110BD044C002121612168484364216D
:1059600000F006F8606110BD2C0400402C000040DF
:1059700043088B421AD3002203098B4279D3030ACE
:105980008B425ED3030B8B4242D3030C8B4227D353
:105990000902FF2212BA030C8B4202D3121209022F
:1059A00003D0030B8B4233D31AE0D3E0411A80417A
:1059B000401C704703460B4371D443088B42F5D318
:1059C000002203098B4254D3030A8B4239D3030BC1
:1059D0008B421DD3030C8B4202D394466EE0090A1E
:1059E000C30B8B4201D3CB03C01A5241830B8B42B2
:1059F00001D38B03C01A5241430B8B4201D34B039B
:105A0000C01A5241030B8B4201D30B03C01A5241FF
:105A1000C30A8B4201D3CB02C01A5241830A8B4284
:105A200001D38B02C01A5241430A8B4201D34B026D
:105A3000C01A5241030A8B4201D30B02C01A5241D1
:105A4000CDD2C3098B4201D3CB01C01A5241830985
:105A50008B4201D38B01C01A524143098B4201D3BF
:105A60004B01C01A524103098B4201D30B01C01AEA
:105A70005241C3088B4201D3CB00C01A5241830864
:105A80008B4201D38B00C01A524143088B4201D391
:105A90004B00C01A5241411A524110007047CA0FC0
:105AA00000D04942031000D34042534000229C469C
:105AB00003098B422DD3030A8B4212D38901FC22A6
:105AC00012BA030A8B420CD3890192118B4208D37C
:105AD000890192118B4204D3890137D0921100E0E1
