:020000040800F2
:10000000B0070020A10100082D1400084D130008BE
:1000100000000000000000000000000000000000E0
:100020000000000000000000000000000D160008A5
:1000300000000000000000002F1400080F16000848
:10004000B3010008B3010008B3010008B3010008C0
:10005000B3010008B3010008B3010008B3010008B0
:10006000B3010008B3010008B3010008B3010008A0
:10007000B3010008B3010008B3010008B301000890
:10008000B3010008B3010008B3010008B301000880
:10009000B3010008B3010008B3010008B301000870
:1000A000B3010008B3010008B3010008B301000860
:1000B000B3010008B3010008B3010008B301000850
:1000C00000F002F800F040F80CA030C808382418FE
:1000D0002D18A246671EAB4654465D46AC4201D180
:1000E00000F032F87E460F3E0FCCB6460126334272
:1000F00000D0FB1AA246AB46334318470C1C000045
:100100002C1C0000103A02D378C878C1FAD85207E4
:1001100001D330C830C101D504680C6070470000BD
:100120000023002400250026103A01D378C1FBD813
:10013000520700D330C100D50B6070471FB5C046D1
:10014000C0461FBD10B510BD00F097F91146FFF76E
:10015000F5FF01F023FD00F0AFF903B4FFF7F2FF64
:1001600003BC00F0B3F9000070B505460C46164616
:1001700002E00FCC0FC5103E102EFAD2082E02D38B
:1001800003CC03C5083E042E07D301CC01C5361F9E
:1001900003E021782970641C6D1C761EF9D270BDB5
:1001A0000748804707480047FEE7FEE7FEE7FEE70F
:1001B000FEE7FEE704480549054A064B7047000084
:1001C00067160008C1000008B0010020B007002039
:1001D000B0030020B0030020FEB5054610460C46D3
:1001E000184373D0AE468C460020AD1A01469C41A0
:1001F00067D36646002701243D46B61A9D4102D3C7
:1002000013463A462124654676462F04360C3E4373
:100210002D0CB61A9D4104D3150C1B042B4312045C
:100220001034654676462F06360A3E432D0AB61A26
:100230009D4104D3150E1B022B4312020834654660
:1002400076462F0736093E432D09B61A9D4104D341
:10025000150F1B012B431201241D65467646AF077F
:10026000B6083E43AD08B61A9D4104D3950F9B00D6
:100270002B439200A41C65467646EF0776083E4362
:100280006D08B61A9D411AD392185B41641C16E0A2
:100290000018764665464941B71A9D410191009084
:1002A00009D36046B11A98418E4684460098019958
:1002B0000025401C6941DD0752082A435B08641E83
:1002C000E6D57246634603B0F0BDFFE70020014665
:1002D000C046C0462A462346F5E701E004C0091F90
:1002E0000429FBD28B0701D50280801CC90700D0EE
:1002F0000270704700290BD0C30702D00270401C67
:10030000491E022904D3830702D50280801C891E5E
:10031000E3E70022EEE70022DFE7002203098B4239
:100320002CD3030A8B4211D300239C464EE0034694
:100330000B433CD4002243088B4231D303098B4248
:100340001CD3030A8B4201D394463FE0C3098B427E
:1003500001D3CB01C01A524183098B4201D38B01D7
:10036000C01A524143098B4201D34B01C01A52417A
:1003700003098B4201D30B01C01A5241C3088B42BF
:1003800001D3CB00C01A524183088B4201D38B00AA
:10039000C01A524143088B4201D34B00C01A52414C
:1003A000411A00D201465241104670475DE0CA0F23
:1003B00000D04942031000D34042534000229C46E3
:1003C00003098B422DD3030A8B4212D3FC228901ED
:1003D00012BA030A8B420CD3890192118B4208D3C3
:1003E000890192118B4204D389013AD0921100E025
:1003F0008909C3098B4201D3CB01C01A5241830939
:100400008B4201D38B01C01A524143098B4201D365
:100410004B01C01A524103098B4201D30B01C01A90
:100420005241C3088B4201D3CB00C01A524183080A
:100430008B4201D38B00C01A5241D9D243088B4260
:1004400001D34B00C01A5241411A00D20146634603
:1004500052415B10104601D34042002B00D5494267
:10046000704763465B1000D3404201B50020C04690
:10047000C04602BD704770477047754600F022F8CD
:10048000AE46050069465346C008C000854618B010
:1004900020B5FFF78FFE60BC00274908B64600264E
:1004A000C0C5C0C5C0C5C0C5C0C5C0C5C0C5C0C524
:1004B000403D49008D4670470446C046C046204630
:1004C000FFF74BFE004870475001002001491820FB
:1004D000ABBEFEE7260002007047000070B5044680
:1004E00000F0EEF80546601C02D00448007824189D
:1004F00000F0E6F8401BA042FAD370BD00000020D7
:10050000F8B5002303240125BFE02E469E40B446E3
:1005100032407CD00E79B607B60F012E01D0022EE4
:1005200017D186682746B6465E00B74000967646E5
:10053000BE43B646CF68009EB740764637438760D5
:1005400046686746BE430F79FF06FF0F9F4037435B
:1005500047600E79F643B6070ED0C6682746B44604
:100560005E00B646B7406646BE43B4468F687646E0
:10057000B74066463743C7600E79B607B60F022EFE
:1005800014D1DE08B60036180096366A5F07B44606
:10059000FE0E0F27B646B7406646BE43B4460F6907
:1005A0007646B74066463743009E37620668274660
:1005B000B4465E00B646B7406646BE430F79B446C1
:1005C000BF07BF0F7646B7406646374307604E68A1
:1005D000B603B60F58D0304FBE692E43BE61BE6918
:1005E0009F08F607F60F2D4EBF00BE190096B6689D
:1005F0000F27B4469E07360FB646B7406646BE4341
:100600000927FF06B446B84202D1002715E03BE0B7
:10061000234FB84201D101270FE0224FB84201D148
:1006200002270AE0204FB84201D1032705E01F4FFF
:10063000B84201D1042700E005277646B740664658
:100640003743009EB7601A4EB6684F689643FF0264
:1006500000D51643164FBE60FE684F689643BF0232
:1006600000D51643124FFE607E684F689643BF0365
:1006700000D516430E4F7E603E684F689643FF03D9
:1006800000D516430A4A16605B1C0A681646DE400F
:1006900000D03AE7F8BD0000001002400000014021
:1006A0000004004800080048000C00480010004802
:1006B00000040140002A01D08161704781627047C7
:1006C00001488068704700000000002070B50246B5
:1006D00040325378202B1CD11378012B19D00123E1
:1006E000137024245470046825689D4325600468B1
:1006F00025681E03B5432560046825680D43256001
:1007000000680168194301602020507000201070BB
:1007100070BD022070BD70B5024640325378202B68
:100720001BD11378012B18D001241470242353708B
:1007300003681D68A5431D6005682B680F263602F7
:10074000B34309021943296000680168214301602D
:10075000202050700020107070BD022070BD00007D
:1007600070B5040006D0254640356878002600287C
:1007700002D005E0012070BD2E70204600F04AF83E
:1007800024206870206801684908490001600F2131
:100790006068090688432168086121688A68012029
:1007A000C00382438A60E1680129A16808D0212240
:1007B0009202114322689160E168022902D005E0AB
:1007C0000143F7E701212268C902516021684A68A4
:1007D0000F4B1A434A602168CA688243CA60616944
:1007E00020690843A169090208432168C860216A99
:1007F000E06908432168086020680168012211430C
:1008000001606664202068702663AE70002070BDB1
:1008100000800002F0B587B0044614216846FFF757
:100820007AFD16492068884226D1154C616901205D
:10083000800401436161616912250140C0110026F5
:1008400003276A46E1C201200591049069460D48DC
:10085000FFF756FE012040036946E1C105200490E0
:1008600069460848FFF74CFEE16901208005014315
:10087000E161E1690140059107B0F0BD0058004019
:10088000001002400004004802488168027889187C
:10089000816070470000002010B5064801681022F2
:1008A00011430160032000F007F800F027F8002052
:1008B00010BD00000020024070B504460D4D7D20A3
:1008C0002978C000FFF729FD01460B480068FFF7B3
:1008D00024FD00F0BBFC002809D1042C07D2002223
:1008E0002146401E00F01EF800206C6070BD012003
:1008F00070BD0000000000200C00002008B5084872
:100900008169012211438161816911400091C269AD
:1009100001040A43C261C0690840009008BD00009C
:100920000010024010B501F0BFF810BDF8B50F4639
:1009300006005ED03C4D2868C007C00FB84209D2FF
:10094000286840084000384328602868C007C00F66
:10095000B8424ED13068354C81070CD5400704D5DC
:10096000606807210902084360606068F0218843DD
:10097000B168084360603078C0072BD070680128E8
:1009800010D0022810D0032811D02168890700292F
:100990002FDA61688908890001436160FFF790FEE2
:1009A000009010E0216803E021688901EFE7616BA6
:1009B0008903ECE7FFF784FE0099411A1C48814245
:1009C00001D90320F8BD60680C21084071688900D6
:1009D0008842EFD12868C007C00FB8420BD92868F9
:1009E00040084000384328602868C007C00FB8425C
:1009F00001D00120F8BD3078400706D56068072196
:100A000009028843F1680843606000F027F86168D4
:100A1000084A0906090F515CC840074908600320CD
:100A2000FFF74AFF0020F8BD0020024000100240FE
:100A300088130000F01C00080C0000200448054941
:100A400000684968044A4905490F515CC84070472D
:100A50000C00002000100240001D000870B5154A6F
:100A600051680C200B4603401348042B05D0134D4E
:100A7000082B03D00C2B00D1284670BD8B02104CE4
:100A80001B0FE45CD26A0E4B1207120F1033C9031E
:100A90009A5C890F022901D0032901D0002301E0CB
:100AA000002328460021FFF797FB214600F0E4FFD2
:100AB00070BD00000010024000127A00006CDC02E1
:100AC000D01C0008FEB5040070D02078F94EFA4D15
:100AD000C00748D068680007800F01281FD06868E9
:100AE0000007800F022804D16868C003800F022825
:100AF00015D06168012919D001208004002901D096
:100B0000052917D02968B1432960296881432960E4
:100B1000606800281BD0FFF7D3FD074613E0286864
:100B2000800320D560680028CED01CE028683043C0
:100B30002860EDE7296801432960F7E7FFF7C0FD6A
:100B4000C01B642870D828688003F7D50BE0FFF736
:100B5000B7FD074604E0FFF7B3FDC01B6428F1D8DA
:100B600028688003F7D4207880073FD5686800079D
:100B7000800F14D068680007800F022804D16868CD
:100B8000C003800F01280AD0E068002828681ED022
:100B9000012108432860FFF793FD07460CE0286811
:100BA00080070CD5E068012800D108E07FE1FFF75D
:100BB00087FDC01B0228C5D828688007F7D528689C
:100BC000F82188432169C900084328600EE04008E5
:100BD00040002860FFF774FD074604E0FFF770FD52
:100BE000C01B0228AED828688007F7D420780007F9
:100BF00023D5E0690028686A0FD0012108436862A4
:100C0000FFF75EFD074604E0FFF75AFDC01B022810
:100C100098D8686A8007F7D50FE0400840006862FE
:100C2000FFF74EFD074605E0C9E0FFF749FDC01B91
:100C3000022887D8686A8007F7D4207804274007FD
:100C4000002860DA00200190E869C00008D4E96952
:100C5000B8060143E961E969014001200091019072
:100C600096480168C90511D40168821511430160D5
:100C7000FFF726FD009005E0FFF722FD0099401ADE
:100C8000642898D88D480068C005F5D5A06801286B
:100C90000AD0002801D0052811D0286A4008400059
:100CA0002862286AB84302E0286A012108432862C2
:100CB000A068002812D0FFF703FD00900AE0286A20
:100CC00038432862F0E7FFF7FBFC0099411A7C48A3
:100CD000814274D8286A8007F5D50DE0FFF7F0FC53
:100CE000009006E0FFF7ECFC0099411A744881423D
:100CF00065D8286A8007F5D40198012803D1E969ED
:100D000000078143E9612078C00635D56069012874
:100D10000CD0401D686B24D038436863686B400872
:100D200040006863FFF7CCFC074622E0686B38435D
:100D30006863686B012108436863FFF7C1FC0746DD
:100D400004E0FFF7BDFCC01B022838D8686B8007A1
:100D5000F7D5686BF8218843A169C9000843686327
:100D60000AE0B8436863F4E7FFF7AAFCC01B022857
:100D700025D8686B8007F7D42078800637D5686857
:100D80000007800F032813D068680007800F02282F
:100D900004D16868C003800F032809D0206A0028A6
:100DA000686B16D030436863FFF78AFC06460CE098
:100DB000686B80031BD5206A012878D117E05BE0BF
:100DC000FFF77EFC801B022856D8686B8003F7D59E
:100DD0000DE0B0436863FFF773FC064604E0FFF7DD
:100DE0006FFC801B022847D8686B8003F7D4606AC9
:100DF000002867D069680907890F022942D00126B7
:100E000036060228286805D0B0432860FFF758FC52
:100E1000044633E0B0432860FFF752FC074604E085
:100E2000FFF74EFCC01B022826D828688001F7D4A3
:100E3000E86A216B000900010843E862A16AE06AE0
:100E4000084369687B22D20391430843686028689D
:100E500030432860FFF734FC044604E0FFF730FC21
:100E6000001B022808D828688001F7D52AE0FFF780
:100E700027FC001B022801D90320FEBD2868800141
:100E8000F5D41FE00128F8D06868E96A0322D2038C
:100E9000A36A02409A420AD10907226B090F9142C4
:100EA00005D10F2189040840E16A88420AD0012057
:100EB000FEBD000000000100001002400070004074
:100EC000881300000020F3E7F8B504000CD0606A36
:100ED000002500280AD02561656126464036A562B6
:100EE000707F002808D00BE00120F8BD6168C81FA2
:100EF000FD38F2D0E561F0E73577204600F05CF888
:100F00000222727720680168402399430160072319
:100F1000E1681B02994201D9002001E00120000391
:100F20000F273F02B94202D0994200D0A562FF23A9
:100F30006168053319402127A368BF023B4019436C
:100F400023691340227D1943D207D20F1143012395
:100F5000A2695B021A401143E26938231A40114327
:100F6000226A80231A401143A26A9B011A4011434E
:100F700022681160A1690422090C1140626A1023E1
:100F80001A401143626B08231A4011430F23E26891
:100F90001B021A4011430122120310400143206832
:100FA00041602068C16952109143C16125660120EA
:100FB00070770020F8BD0000F0B587B0044614211A
:100FC0006846FFF7A8F91F492068884238D11E48B3
:100FD000C1690125AD032943C161C169294005915A
:100FE000426969010A43426142690A4005924269C5
:100FF00049100A43426140690226084005900820D2
:101000000090012000240327049003970196029486
:1010100069460E48FFF774FA2811009005200490E5
:1010200003970196029469460948FFF769FA02940A
:10103000694607480397019600950494FFF760FA04
:1010400007B0F0BD00380040001002400008004822
:1010500000040048FFB5044683B001202546403512
:101060000090287F00271E4601280FD001202877F6
:10107000FFF726FB0190687F616801280DD0CA1F29
:10108000FD3A08D1A168002905D102E0022007B08D
:10109000F0BD042801D00227D3E0049800286FD0C7
:1010A00005980028FBD0002EF9D0687F042801D0D5
:1010B000052068770020206605992164EE80AE80C7
:1010C0000499A163E687A687E064206507210120D3
:1010D000E268090200038A422268536801D9834307
:1010E00000E00343536020680268520603D402689C
:1010F00040231A430260E0688842606848D90028AB
:1011000001D0012E3DD1A06B21680088C860A06B82
:10111000801CA063E08F401EE08732E02068816879
:10112000890710D5E18F00290DD0009901290AD136
:10113000A16B0988C160A06B801CA063E08F401E7A
:10114000E0870020009020688168C9070DD0E988F9
:1011500000290AD0C068216C0880206C801C2064A3
:10116000E888401EE88001200090FFF7A9FA019965
:10117000411A0C98814204D3401C02D003275EE040
:101180005BE0E08F0028C9D1E8880028C6D147E09D
:10119000002801D0012E3DD1A06B21680078087392
:1011A000A06B401CA063E08F401EE08732E0206807
:1011B0008168890710D5E18F00290DD00099012998
:1011C0000AD1A16B09780173A06B401CA063E08F6A
:1011D000401EE0870020009020688168C9070DD07C
:1011E000E98800290AD0007B216C0870206C401C23
:1011F0002064E888401EE88001200090FFF760FA34
:101200000199411A0C98814202D3401C02D0B5E7E3
:101210000028B3D0E08F0028C9D1E8880028C6D1C3
:101220002046019A0C9900F003F9002802D001270A
:1012300020202066206E002801D0012701E0012037
:10124000687700202877384621E70000094910B563
:10125000401E884201D9012010BD074C6061032166
:10126000081F00F021FC0020A06107202061002061
:1012700010BD0000FFFFFF0000E000E010B504001B
:1012800003D0E06F002802D007E0012010BD00214C
:1012900078200155204600F027F82420E0672068D8
:1012A0000168490849000160204600F0EFFA012872
:1012B000ECD0606A002802D0204600F0EFF92068E8
:1012C00041680922D20291434160206881682A2244
:1012D000914381602068016801221143016020462A
:1012E00000F042FA10BD000010B586B0044614218B
:1012F0006846FFF710F81249206888421DD111484E
:10130000C269012189040A43C261C2690A40059287
:10131000426949000A434261406908400590302013
:1013200000900220019000200290032003900120F1
:10133000049069460448FFF7E3F806B010BD0000CA
:10134000004800400010024000080048FEE700008E
:1013500010B51348114901601249416000218160B4
:101360000161416181610122C161C2600162FFF7D7
:10137000F7F9002801D072B6FEE700210848FFF710
:10138000A5F9002801D072B6FEE700210448FFF756
:10139000C2F9002801D072B6FEE710BD0058004027
:1013A000100000200E09002010B511480F490160FF
:1013B000FF21053141600021072281601202016195
:1013C000C2600122416152028261016218224162BF
:1013D000C26181620722C262016308214163FFF793
:1013E00073FD002801D072B6FEE710BD0038004042
:1013F0006400002010B50C480A4901604B21C90166
:10140000416000218160C16001618161C1610C2284
:10141000016242614162FFF731FF002801D072B6DC
:10142000FEE710BD00480040C8000020FEE77047FE
:10143000F8B50F460B4615460092032104460022DC
:10144000C90200F01BF82026002812D13B460022DA
:1014500080212046009500F07DF8002809D1032165
:101460003B46002249022046009500F007F800287C
:1014700003D0206E304320660320F8BDFFB585B051
:101480000E460446002069460E9D17460871FFF778
:1014900017F9411B0898451AFFF712F903902068C5
:1014A00023210C3002902A4800684843000D68430D
:1014B00046E003204002864206D1002F04D1029864
:1014C00001786846017100790898401C39D0FFF70F
:1014D000F7F80399401AA84205D2002D03D00098CE
:1014E00000282BD02BE020684168E0229143416026
:1014F0006068C11FFD390CD10121A068C903884271
:1015000002D04911884204D12068016840229143E9
:1015100001600120A16A4003814207D121680A6865
:1015200082430A6021680A6802430A60012040344D
:10153000607700202077032009B0F0BD0025401E11
:101540000090206880683040B842B2D10020F3E7B4
:101550000C000020FFB581B01E4604460A9DFFF72F
:10156000AFF8401B351AFFF7ABF80746264800686E
:101570004001000D684339E0701C38D0FFF7A0F837
:10158000C01BA84205D2002D03D0009800282BD004
:101590002BE020684168E022914341606068C11FF0
:1015A000FD390CD10121A068C903884202D049113C
:1015B000884204D1206801684022914301600120E3
:1015C000A16A4003814207D121680A6882430A6008
:1015D00021680A6802430A600120403460770020D5
:1015E0002077032005B0F0BD0025401E0090206844
:1015F00081680298884305D0002103988142BBD1BD
:101600000020EFE70121F8E70C000020704710B53B
:10161000FFF73AF910BD10B592B034216846FEF7D5
:101620007AFE00240F94022000900D9401200E9465
:10163000039010200994049010946846FFF742FA32
:10164000002801D072B6FEE707200D900E940F948B
:10165000002110940DA8FFF769F9002801D072B697
:10166000FEE712B010BD70470349CA691206FCD5E7
:1016700001492031088170470048004000B5034609
:1016800002E0FFF7F1FF5B1C18780028F9D10A206F
:10169000FFF7EAFF0D20FFF7E7FF00BD10B5818CD3
:1016A000C90707D001684A6801235B049A43836A2B
:1016B0001A434A60818C890707D501684A6801236B
:1016C0001B049A43C36A1A434A60818C490707D5B1
:1016D00001684A6801239B049A43036B1A434A60DA
:1016E000818C090707D501684A680123DB039A4307
:1016F000436B1A434A60818CC90607D5026891681A
:1017000001231B039943836B19439160818C8906E4
:1017100007D501688A6801235B039A43C36B1A43A8
:101720008A60818C490612D503685A68012109052F
:10173000046C8A4322435A60026C8A4207D10268D1
:10174000516803235B059943436C19435160818CB5
:10175000090607D501684A680123DB04806C9A43B7
:1017600002434A6010BD0000FEB5074600258037E1
:1017700004467D60FEF7A4FF0190206800682646BD
:1017800000076036002819DA27480090012100225E
:1017900049052046019B00F029F900280ED0EFF3FF
:1017A0001080012181F3108821680A6880239A4300
:1017B0000A6080F310882020E06729E02068006834
:1017C000400728D5184800900121002289052046AD
:1017D000019B00F00BF900281DD0EFF310800121D0
:1017E00081F3108821680A68FF2321339A430A6035
:1017F00080F31088EFF31080012181F310882168B5
:101800008A68520852008A6080F31088202038606D
:1018100035760320FEBD2020E067386025666566CA
:1018200035760020FEBD0000FFFFFF0110B5EFF38D
:101830001081012282F3108802681368FF2421348A
:10184000A343136081F31088EFF31081012282F328
:101850001088026893685B085B00936081F31088CE
:10186000016E01290BD1EFF31081012282F3108860
:10187000026813681024A343136081F310882022A8
:1018800080210A5000210166816610BD70B50446B2
:1018900080682169E2690843616900251143226873
:1018A00008431168494B19400143116020684168A1
:1018B000032212039143E26811434160A169206A47
:1018C0002268084391680B231B02994301439160EE
:1018D0003F4A20683F4990420AD1086B8007800F39
:1018E00022D0012816D0022816D003281ED10FE0DE
:1018F000394A904212D1096B03200004014016D0EE
:1019000001200004091A05D0091A05D0081A0DD1C2
:1019100002210CE004210AE0082108E02F49884256
:1019200002D02F49884201D1002100E0102101207E
:10193000E369C0032B4A2C4E834222D1002906D0F2
:10194000022907D0042907D0082935D108E0FFF77C
:1019500075F803E0104603E0FFF780F8002830D068
:10196000616840004A088018FEF7D7FC014610392C
:10197000B14221D81C49491C01400007400F0843CF
:101980001DE0002906D0022907D0042907D0082924
:1019900012D108E0FFF752F803E0104603E0FFF72A
:1019A0005DF800280DD061684A081018FEF7B5FCF4
:1019B00001461039B14201D9012502E080B2216807
:1019C000C8600020A066E066284670BDF369FFEF9E
:1019D0000038014000100240004400400048004030
:1019E000004C004000127A00EFFF0000FFB50646F1
:1019F00081B080360546044660350A9F2FE0781C8A
:101A00002DD0FEF75DFE01460498081AB84214D89E
:101A1000002F12D020680168490720D5C169C94349
:101A200009070CD4082707622046FFF7FFFE7760FE
:101A300000202876012005B0F0BD0320FBE7C06937
:101A4000C04300050BD401202168C0020862204673
:101A5000FFF7ECFE2020706000202876EDE720687C
:101A6000C1690298884305D0002103988142C6D0FD
:101A70000020E0E70121F8E7F8B5040C8BB2264618
:101A800082B25E430D0C1046370C58433604801961
:101A90000021794116466E43370C3604801979418E
:101AA00026466E438919F8BD8307FF22DB0E9A4054
:101AB0008907090E9940002808DB830809489B0024
:101AC0001B18186890430843186070470007000F00
:101AD0000838830804489B001B18D86990430843C2
:101AE000D861704700E400E000ED00E031B584B05B
:101AF00000216846017209250A46ED061021284694
:101B0000FEF7D8FD6424012301AA04A90948009422
:101B1000FFF7A0FA012301AA02A906480094FFF7E3
:101B200099FA012210212846FEF7C4FD6846007983
:101B300005B030BD6400002033B50925ED0683B043
:101B4000002210212846FEF7B5FD00F01BF86424A2
:101B5000012301AA03A90A480094FFF77BFA012395
:101B600001AA04A906480094FFF774FA00F00AF8E5
:101B7000012210212846FEF79DFD012005B030BD51
:101B80006400002008B50020694608800888052800
:101B900002D00888401CF8E708BD000086B0FEF7B8
:101BA0007BFEFFF738FD234842690121C9040A433F
:101BB000426142690A400092426949100A43426107
:101BC00042690A400092426949100A4342614069F1
:101BD00008400090FFF70EFCFFF7BAFBFFF7E4FBAD
:101BE000142215496846FEF7BFFA0924E40669463F
:101BF0002046FEF785FC012210212046FEF75AFD03
:101C00000EA0FFF73BFD7D24E40002E011A0FFF7EA
:101C100035FD2046FEF762FC5521002000F048F813
:101C2000002000F03FF85528F0D112A0FFF726FD64
:101C300018A0FBE700100240BC1C000841434B20E9
:101C4000434D44204172647543414D205374617289
:101C5000742100000D41434B20434D442053504913
:101C600020696E74657266616365204572726F7279
:101C7000210A00000D41434B20434D44205350495D
:101C800020696E74657266616365204F4B210D0A91
:101C9000000000000D4D61696E204C6F6F70210DCA
:101CA0000A00000010B54006400EFFF71FFF10BDF0
:101CB00010B580221043FFF73FFF10BD1000000059
:101CC0000100000003000000000000000000000010
:101CD00002030405060708090A0B0C0D0E0F10106D
:101CE0000102030405060708090A0B0C0D0E0F106C
:101CF00000000000000000000102030406070809BC
:101D00000000000001020304281D0008000000205C
:101D10001000000004010008381D00081000002019
:101D2000A0070000200100080100000004000000DE
:081D30000000000000127A001F
:04000005080000C12E
:00000001FF
